{
  "contractName": "Slot",
  "abi": [
    {
      "inputs": [
        {
          "internalType": "address",
          "name": "_adminAddress",
          "type": "address"
        },
        {
          "internalType": "address",
          "name": "_operatorAddress",
          "type": "address"
        },
        {
          "internalType": "address",
          "name": "_gameTokenAddress",
          "type": "address"
        },
        {
          "internalType": "uint256",
          "name": "_gameFee",
          "type": "uint256"
        }
      ],
      "stateMutability": "nonpayable",
      "type": "constructor"
    },
    {
      "anonymous": false,
      "inputs": [
        {
          "indexed": false,
          "internalType": "uint256",
          "name": "roundId",
          "type": "uint256"
        },
        {
          "indexed": false,
          "internalType": "address",
          "name": "user",
          "type": "address"
        },
        {
          "indexed": false,
          "internalType": "uint256",
          "name": "gameFee",
          "type": "uint256"
        }
      ],
      "name": "GameEntered",
      "type": "event"
    },
    {
      "anonymous": false,
      "inputs": [
        {
          "indexed": false,
          "internalType": "uint256",
          "name": "gameFee",
          "type": "uint256"
        }
      ],
      "name": "GameFeeSet",
      "type": "event"
    },
    {
      "anonymous": false,
      "inputs": [
        {
          "indexed": false,
          "internalType": "address",
          "name": "tokenAddress",
          "type": "address"
        }
      ],
      "name": "NewGameToken",
      "type": "event"
    },
    {
      "anonymous": false,
      "inputs": [
        {
          "indexed": false,
          "internalType": "address",
          "name": "operator",
          "type": "address"
        }
      ],
      "name": "NewOperatorAddress",
      "type": "event"
    },
    {
      "anonymous": false,
      "inputs": [
        {
          "indexed": true,
          "internalType": "address",
          "name": "previousOwner",
          "type": "address"
        },
        {
          "indexed": true,
          "internalType": "address",
          "name": "newOwner",
          "type": "address"
        }
      ],
      "name": "OwnershipTransferred",
      "type": "event"
    },
    {
      "anonymous": false,
      "inputs": [
        {
          "indexed": false,
          "internalType": "address",
          "name": "account",
          "type": "address"
        }
      ],
      "name": "Paused",
      "type": "event"
    },
    {
      "anonymous": false,
      "inputs": [
        {
          "indexed": false,
          "internalType": "address",
          "name": "player",
          "type": "address"
        },
        {
          "indexed": false,
          "internalType": "uint256",
          "name": "amount",
          "type": "uint256"
        }
      ],
      "name": "PlayerClaimed",
      "type": "event"
    },
    {
      "anonymous": false,
      "inputs": [
        {
          "indexed": false,
          "internalType": "uint256",
          "name": "roundId",
          "type": "uint256"
        },
        {
          "indexed": false,
          "internalType": "uint256",
          "name": "amount",
          "type": "uint256"
        }
      ],
      "name": "ResultUpdated",
      "type": "event"
    },
    {
      "anonymous": false,
      "inputs": [
        {
          "indexed": false,
          "internalType": "uint256",
          "name": "amount",
          "type": "uint256"
        }
      ],
      "name": "TreasuryClaim",
      "type": "event"
    },
    {
      "anonymous": false,
      "inputs": [
        {
          "indexed": false,
          "internalType": "address",
          "name": "account",
          "type": "address"
        }
      ],
      "name": "Unpaused",
      "type": "event"
    },
    {
      "inputs": [],
      "name": "adminAddress",
      "outputs": [
        {
          "internalType": "address",
          "name": "",
          "type": "address"
        }
      ],
      "stateMutability": "view",
      "type": "function"
    },
    {
      "inputs": [],
      "name": "gameFee",
      "outputs": [
        {
          "internalType": "uint256",
          "name": "",
          "type": "uint256"
        }
      ],
      "stateMutability": "view",
      "type": "function"
    },
    {
      "inputs": [],
      "name": "gameToken",
      "outputs": [
        {
          "internalType": "address",
          "name": "",
          "type": "address"
        }
      ],
      "stateMutability": "view",
      "type": "function"
    },
    {
      "inputs": [
        {
          "internalType": "uint256",
          "name": "",
          "type": "uint256"
        }
      ],
      "name": "ledger",
      "outputs": [
        {
          "internalType": "address",
          "name": "playerAddress",
          "type": "address"
        },
        {
          "internalType": "uint256",
          "name": "roundId",
          "type": "uint256"
        },
        {
          "internalType": "uint256",
          "name": "amount",
          "type": "uint256"
        },
        {
          "internalType": "bool",
          "name": "updated",
          "type": "bool"
        },
        {
          "internalType": "bool",
          "name": "claimed",
          "type": "bool"
        }
      ],
      "stateMutability": "view",
      "type": "function"
    },
    {
      "inputs": [],
      "name": "operatorAddress",
      "outputs": [
        {
          "internalType": "address",
          "name": "",
          "type": "address"
        }
      ],
      "stateMutability": "view",
      "type": "function"
    },
    {
      "inputs": [],
      "name": "owner",
      "outputs": [
        {
          "internalType": "address",
          "name": "",
          "type": "address"
        }
      ],
      "stateMutability": "view",
      "type": "function"
    },
    {
      "inputs": [],
      "name": "paused",
      "outputs": [
        {
          "internalType": "bool",
          "name": "",
          "type": "bool"
        }
      ],
      "stateMutability": "view",
      "type": "function"
    },
    {
      "inputs": [],
      "name": "renounceOwnership",
      "outputs": [],
      "stateMutability": "nonpayable",
      "type": "function"
    },
    {
      "inputs": [
        {
          "internalType": "address",
          "name": "newOwner",
          "type": "address"
        }
      ],
      "name": "transferOwnership",
      "outputs": [],
      "stateMutability": "nonpayable",
      "type": "function"
    },
    {
      "inputs": [
        {
          "internalType": "address",
          "name": "",
          "type": "address"
        },
        {
          "internalType": "uint256",
          "name": "",
          "type": "uint256"
        }
      ],
      "name": "userRounds",
      "outputs": [
        {
          "internalType": "uint256",
          "name": "",
          "type": "uint256"
        }
      ],
      "stateMutability": "view",
      "type": "function"
    },
    {
      "inputs": [
        {
          "internalType": "address",
          "name": "",
          "type": "address"
        }
      ],
      "name": "userWinnings",
      "outputs": [
        {
          "internalType": "uint256",
          "name": "",
          "type": "uint256"
        }
      ],
      "stateMutability": "view",
      "type": "function"
    },
    {
      "inputs": [
        {
          "internalType": "address",
          "name": "_operatorAddress",
          "type": "address"
        }
      ],
      "name": "setOperator",
      "outputs": [],
      "stateMutability": "nonpayable",
      "type": "function"
    },
    {
      "inputs": [
        {
          "internalType": "uint256",
          "name": "_gameFee",
          "type": "uint256"
        }
      ],
      "name": "setGameFee",
      "outputs": [],
      "stateMutability": "nonpayable",
      "type": "function"
    },
    {
      "inputs": [
        {
          "internalType": "address",
          "name": "tokenAddress",
          "type": "address"
        }
      ],
      "name": "setGameToken",
      "outputs": [],
      "stateMutability": "nonpayable",
      "type": "function"
    },
    {
      "inputs": [
        {
          "internalType": "uint256",
          "name": "_roundId",
          "type": "uint256"
        }
      ],
      "name": "enterGame",
      "outputs": [],
      "stateMutability": "nonpayable",
      "type": "function"
    },
    {
      "inputs": [],
      "name": "claim",
      "outputs": [],
      "stateMutability": "nonpayable",
      "type": "function"
    },
    {
      "inputs": [
        {
          "internalType": "uint256",
          "name": "_roundId",
          "type": "uint256"
        },
        {
          "internalType": "uint256",
          "name": "_amount",
          "type": "uint256"
        }
      ],
      "name": "setRoundResult",
      "outputs": [],
      "stateMutability": "nonpayable",
      "type": "function"
    },
    {
      "inputs": [
        {
          "internalType": "uint256",
          "name": "value",
          "type": "uint256"
        }
      ],
      "name": "claimTreasury",
      "outputs": [],
      "stateMutability": "nonpayable",
      "type": "function"
    },
    {
      "inputs": [
        {
          "internalType": "address",
          "name": "_address",
          "type": "address"
        }
      ],
      "name": "getUserWinnings",
      "outputs": [
        {
          "internalType": "uint256",
          "name": "",
          "type": "uint256"
        }
      ],
      "stateMutability": "view",
      "type": "function"
    },
    {
      "inputs": [
        {
          "internalType": "address",
          "name": "_address",
          "type": "address"
        }
      ],
      "name": "getUserRounds",
      "outputs": [
        {
          "internalType": "uint256[]",
          "name": "",
          "type": "uint256[]"
        }
      ],
      "stateMutability": "view",
      "type": "function"
    },
    {
      "inputs": [
        {
          "internalType": "uint256",
          "name": "_roundId",
          "type": "uint256"
        }
      ],
      "name": "getLegerEntryForRoundId",
      "outputs": [
        {
          "components": [
            {
              "internalType": "address",
              "name": "playerAddress",
              "type": "address"
            },
            {
              "internalType": "uint256",
              "name": "roundId",
              "type": "uint256"
            },
            {
              "internalType": "uint256",
              "name": "amount",
              "type": "uint256"
            },
            {
              "internalType": "bool",
              "name": "updated",
              "type": "bool"
            },
            {
              "internalType": "bool",
              "name": "claimed",
              "type": "bool"
            }
          ],
          "internalType": "struct Slot.RoundInfo",
          "name": "",
          "type": "tuple"
        }
      ],
      "stateMutability": "view",
      "type": "function"
    }
  ],
  "bytecode": "0x60806040523480156200001157600080fd5b50604051620016f7380380620016f7833981016040819052620000349162000103565b6200003f3362000096565b6000805460ff60a01b1916905560018055600280546001600160a01b03199081166001600160a01b039687161790915560038054821694861694909417909355600480549093169190931617905560055562000155565b600080546001600160a01b038381166001600160a01b0319831681178455604051919092169283917f8be0079c531659141344cd1fd0a4f28419497f9722a3daafe3b4186f6b6457e09190a35050565b80516001600160a01b0381168114620000fe57600080fd5b919050565b600080600080608085870312156200011a57600080fd5b6200012585620000e6565b93506200013560208601620000e6565b92506200014560408601620000e6565b6060959095015193969295505050565b61159280620001656000396000f3fe608060405234801561001057600080fd5b50600436106101775760003560e01c80638da5cb5b116100d8578063b3ab15fb1161008c578063ea777eec11610066578063ea777eec14610478578063f2fde38b14610481578063fc6f94681461049457600080fd5b8063b3ab15fb1461043f578063c3dfdae614610452578063dd1f75961461046557600080fd5b8063a38bcc78116100bd578063a38bcc7814610321578063a815a4d414610334578063aaa6cd191461035457600080fd5b80638da5cb5b146102fd5780639f9357d11461030e57600080fd5b806343d6582b1161012f5780635c975abb116101145780635c975abb146102b4578063715018a6146102e257806380d29e66146102ea57600080fd5b806343d6582b146102995780634e71d92d146102ac57600080fd5b8063127effb211610160578063127effb2146102175780631b3e0799146102425780633a5062941461027957600080fd5b80630dc9f01a1461017c57806310a7fd7b14610191575b600080fd5b61018f61018a3660046113a5565b6104a7565b005b6101dc61019f3660046113c7565b60066020526000908152604090208054600182015460028301546003909301546001600160a01b0390921692909160ff8082169161010090041685565b604080516001600160a01b039096168652602086019490945292840191909152151560608301521515608082015260a0015b60405180910390f35b60035461022a906001600160a01b031681565b6040516001600160a01b03909116815260200161020e565b61026b6102503660046113fc565b6001600160a01b031660009081526008602052604090205490565b60405190815260200161020e565b61028c6102873660046113fc565b61062c565b60405161020e919061141e565b61018f6102a73660046113c7565b610698565b61018f610a4a565b60005474010000000000000000000000000000000000000000900460ff16604051901515815260200161020e565b61018f610dad565b61018f6102f83660046113fc565b610e13565b6000546001600160a01b031661022a565b61018f61031c3660046113c7565b610f11565b61018f61032f3660046113c7565b611073565b61026b6103423660046113fc565b60086020526000908152604090205481565b6103f06103623660046113c7565b6040805160a08101825260008082526020820181905291810182905260608101829052608081019190915250600090815260066020908152604091829020825160a08101845281546001600160a01b0316815260018201549281019290925260028101549282019290925260039091015460ff80821615156060840152610100909104161515608082015290565b60405161020e9190600060a0820190506001600160a01b038351168252602083015160208301526040830151604083015260608301511515606083015260808301511515608083015292915050565b61018f61044d3660046113fc565b61113e565b60045461022a906001600160a01b031681565b61026b610473366004611462565b611235565b61026b60055481565b61018f61048f3660046113fc565b611266565b60025461022a906001600160a01b031681565b6003546001600160a01b031633146105065760405162461bcd60e51b815260206004820152600c60248201527f4e6f74206f70657261746f72000000000000000000000000000000000000000060448201526064015b60405180910390fd5b6000828152600660205260409020546001600160a01b031661056a5760405162461bcd60e51b815260206004820152601460248201527f6e6f74206578697374696e6720726f756e64496400000000000000000000000060448201526064016104fd565b6000828152600660209081526040808320600281018590556003810180547fffffffffffffffffffffffffffffffffffffffffffffffffffffffffffffff0016600117905580546001600160a01b031684526008909252909120546105d09083906114bb565b81546001600160a01b03166000908152600860209081526040918290209290925580518581529182018490527f7c2f2fd9234db87d8356af6a13ce0426a9bdca3d78898334c1e64f1d145f6c45910160405180910390a1505050565b6001600160a01b03811660009081526007602090815260409182902080548351818402810184019094528084526060939283018282801561068c57602002820191906000526020600020905b815481526020019060010190808311610678575b50505050509050919050565b60005474010000000000000000000000000000000000000000900460ff16156107035760405162461bcd60e51b815260206004820152601060248201527f5061757361626c653a207061757365640000000000000000000000000000000060448201526064016104fd565b6002600154036107555760405162461bcd60e51b815260206004820152601f60248201527f5265656e7472616e637947756172643a207265656e7472616e742063616c6c0060448201526064016104fd565b6002600155333b156107a95760405162461bcd60e51b815260206004820152601460248201527f436f6e7472616374206e6f7420616c6c6f77656400000000000000000000000060448201526064016104fd565b3332146107f85760405162461bcd60e51b815260206004820152601a60248201527f50726f787920636f6e7472616374206e6f7420616c6c6f77656400000000000060448201526064016104fd565b806000036108485760405162461bcd60e51b815260206004820152600f60248201527f6d697373696e6720526f756e644964000000000000000000000000000000000060448201526064016104fd565b600081815260066020526040902080546001600160a01b0316156108ae5760405162461bcd60e51b815260206004820152601060248201527f6578697374696e6720726f756e6449640000000000000000000000000000000060448201526064016104fd565b600480546005546040517f23b872dd000000000000000000000000000000000000000000000000000000008152339381019390935230602484015260448301526000916001600160a01b03909116906323b872dd906064016020604051808303816000875af1158015610925573d6000803e3d6000fd5b505050506040513d601f19601f8201168201806040525081019061094991906114d3565b905080156109f957815473ffffffffffffffffffffffffffffffffffffffff1916339081178355600580546002850155600180850186905560008381526007602090815260408083208054948501815583529120909101869055905490517ffdf5d84010c9098b5d431ffd75f564fb7a46812602927739e491409c6433d695926109ec928783526001600160a01b03919091166020830152604082015260600190565b60405180910390a1610a41565b60405162461bcd60e51b815260206004820152601660248201527f726f756e6420776173206e6f74207061696420666f720000000000000000000060448201526064016104fd565b50506001805550565b60005474010000000000000000000000000000000000000000900460ff1615610ab55760405162461bcd60e51b815260206004820152601060248201527f5061757361626c653a207061757365640000000000000000000000000000000060448201526064016104fd565b600260015403610b075760405162461bcd60e51b815260206004820152601f60248201527f5265656e7472616e637947756172643a207265656e7472616e742063616c6c0060448201526064016104fd565b6002600155333b15610b5b5760405162461bcd60e51b815260206004820152601460248201527f436f6e7472616374206e6f7420616c6c6f77656400000000000000000000000060448201526064016104fd565b333214610baa5760405162461bcd60e51b815260206004820152601a60248201527f50726f787920636f6e7472616374206e6f7420616c6c6f77656400000000000060448201526064016104fd565b3360009081526008602052604081205490819003610c0a5760405162461bcd60e51b815260206004820152601060248201527f6e6f7468696e6720746f20636c61696d0000000000000000000000000000000060448201526064016104fd565b3360009081526008602052604081208190555b33600090815260076020526040902054811015610cdb57336000908152600760205260408120805483908110610c5557610c556114f5565b60009182526020808320909101548083526006909152604090912060038101549192509060ff168015610c9257506003810154610100900460ff16155b15610cc6576003810180547fffffffffffffffffffffffffffffffffffffffffffffffffffffffffffff00ff166101001790555b50508080610cd390611524565b915050610c1d565b50600480546040517fa9059cbb0000000000000000000000000000000000000000000000000000000081523392810192909252602482018390526001600160a01b03169063a9059cbb906044016020604051808303816000875af1158015610d47573d6000803e3d6000fd5b505050506040513d601f19601f82011682018060405250810190610d6b91906114d3565b5060408051338152602081018390527ffd04ed5b7effcbeee6271e58baa05984df8c9c3167e577f60b9134f4178848bc91015b60405180910390a15060018055565b6000546001600160a01b03163314610e075760405162461bcd60e51b815260206004820181905260248201527f4f776e61626c653a2063616c6c6572206973206e6f7420746865206f776e657260448201526064016104fd565b610e116000611348565b565b6002546001600160a01b03163314610e595760405162461bcd60e51b81526020600482015260096024820152682737ba1030b236b4b760b91b60448201526064016104fd565b6001600160a01b038116610eaf5760405162461bcd60e51b815260206004820152601660248201527f43616e6e6f74206265207a65726f20616464726573730000000000000000000060448201526064016104fd565b6004805473ffffffffffffffffffffffffffffffffffffffff19166001600160a01b0383169081179091556040519081527f1b2da3a8cc302f942643b808915983aafcb19eac5e65488cc5103f2905a5712b906020015b60405180910390a150565b600260015403610f635760405162461bcd60e51b815260206004820152601f60248201527f5265656e7472616e637947756172643a207265656e7472616e742063616c6c0060448201526064016104fd565b60026001819055546001600160a01b03163314610fae5760405162461bcd60e51b81526020600482015260096024820152682737ba1030b236b4b760b91b60448201526064016104fd565b600480546002546040517fa9059cbb0000000000000000000000000000000000000000000000000000000081526001600160a01b039182169381019390935260248301849052169063a9059cbb906044016020604051808303816000875af115801561101e573d6000803e3d6000fd5b505050506040513d601f19601f8201168201806040525081019061104291906114d3565b506040518181527fb9197c6b8e21274bd1e2d9c956a88af5cfee510f630fab3f046300f88b42236190602001610d9e565b6002546001600160a01b031633146110b95760405162461bcd60e51b81526020600482015260096024820152682737ba1030b236b4b760b91b60448201526064016104fd565b806000036111095760405162461bcd60e51b815260206004820152601360248201527f47616d652063616e6e6f7420626520667265650000000000000000000000000060448201526064016104fd565b60058190556040518181527fe417e4f56f5891bd6bee6640182e9370ecebd2346df4f55151c1dface616d20f90602001610f06565b6002546001600160a01b031633146111845760405162461bcd60e51b81526020600482015260096024820152682737ba1030b236b4b760b91b60448201526064016104fd565b6001600160a01b0381166111da5760405162461bcd60e51b815260206004820152601660248201527f43616e6e6f74206265207a65726f20616464726573730000000000000000000060448201526064016104fd565b6003805473ffffffffffffffffffffffffffffffffffffffff19166001600160a01b0383169081179091556040519081527fc47d127c07bdd56c5ccba00463ce3bd3c1bca71b4670eea6e5d0c02e4aa156e290602001610f06565b6007602052816000526040600020818154811061125157600080fd5b90600052602060002001600091509150505481565b6000546001600160a01b031633146112c05760405162461bcd60e51b815260206004820181905260248201527f4f776e61626c653a2063616c6c6572206973206e6f7420746865206f776e657260448201526064016104fd565b6001600160a01b03811661133c5760405162461bcd60e51b815260206004820152602660248201527f4f776e61626c653a206e6577206f776e657220697320746865207a65726f206160448201527f646472657373000000000000000000000000000000000000000000000000000060648201526084016104fd565b61134581611348565b50565b600080546001600160a01b0383811673ffffffffffffffffffffffffffffffffffffffff19831681178455604051919092169283917f8be0079c531659141344cd1fd0a4f28419497f9722a3daafe3b4186f6b6457e09190a35050565b600080604083850312156113b857600080fd5b50508035926020909101359150565b6000602082840312156113d957600080fd5b5035919050565b80356001600160a01b03811681146113f757600080fd5b919050565b60006020828403121561140e57600080fd5b611417826113e0565b9392505050565b6020808252825182820181905260009190848201906040850190845b818110156114565783518352928401929184019160010161143a565b50909695505050505050565b6000806040838503121561147557600080fd5b61147e836113e0565b946020939093013593505050565b7f4e487b7100000000000000000000000000000000000000000000000000000000600052601160045260246000fd5b600082198211156114ce576114ce61148c565b500190565b6000602082840312156114e557600080fd5b8151801515811461141757600080fd5b7f4e487b7100000000000000000000000000000000000000000000000000000000600052603260045260246000fd5b60007fffffffffffffffffffffffffffffffffffffffffffffffffffffffffffffffff82036115555761155561148c565b506001019056fea2646970667358221220a6a70149c8c44fa34b836c39a120eb144d7d0fb64d8279b8b28f28f07306c6cf64736f6c634300080e0033",
  "immutableReferences": {},
  "source": "// SPDX-License-Identifier: MIT\n\npragma solidity ^0.8.0;\n\nimport \"./abstract/Ownable.sol\";\nimport \"./abstract/Pausable.sol\";\nimport \"./abstract/ReentrancyGuard.sol\";\nimport \"../node_modules/openzeppelin-solidity/contracts/interfaces/IERC20.sol\";\n\ncontract Slot is Ownable, Pausable, ReentrancyGuard {\n\n    address public adminAddress; // address of the admin\n    address public operatorAddress; // address of the operator\n    address public gameToken; // you can pay with this token only\n    uint256 public gameFee;\n    mapping(uint256 => RoundInfo) public ledger; // key on roundId\n    mapping(address => uint256[]) public userRounds; // value is roundId\n    mapping(address => uint256) public userWinnings; // value is balance\n\n    struct RoundInfo {\n        address playerAddress;\n        uint256 roundId;\n        uint256 amount;\n        bool updated; // default false\n        bool claimed; // default false\n    }\n    event NewOperatorAddress(address operator);\n    event NewGameToken(address tokenAddress);\n    event GameFeeSet(uint256 gameFee);\n    event GameEntered(uint256 roundId, address user, uint256 gameFee);\n    event ResultUpdated(uint256 roundId, uint256 amount);\n    event TreasuryClaim(uint256 amount);\n    event PlayerClaimed(address player, uint256 amount);\n\n    modifier onlyAdmin() {\n        require(msg.sender == adminAddress, \"Not admin\");\n        _;\n    }\n\n    modifier onlyAdminOrOperator() {\n        require(msg.sender == adminAddress || msg.sender == operatorAddress, \"Not operator/admin\");\n        _;\n    }\n\n    modifier onlyOperator() {\n        require(msg.sender == operatorAddress, \"Not operator\");\n        _;\n    }\n\n    modifier notContract() {\n        require(!_isContract(msg.sender), \"Contract not allowed\");\n        require(msg.sender == tx.origin, \"Proxy contract not allowed\");\n        _;\n    }\n\n    constructor(\n        address _adminAddress,\n        address _operatorAddress,\n        address _gameTokenAddress,\n        uint256 _gameFee\n    ) {\n        adminAddress = _adminAddress;\n        operatorAddress = _operatorAddress;\n        gameToken = _gameTokenAddress;\n        gameFee = _gameFee;\n    }\n\n    function setOperator(address _operatorAddress) external onlyAdmin {\n        require(_operatorAddress != address(0), \"Cannot be zero address\");\n        operatorAddress = _operatorAddress;\n\n        emit NewOperatorAddress(_operatorAddress);\n    }\n\n    function setGameFee(uint256 _gameFee) external onlyAdmin {\n        require(_gameFee != 0, \"Game cannot be free\");\n        gameFee = _gameFee;\n\n        emit GameFeeSet(_gameFee);\n    }\n\n    function setGameToken(address tokenAddress) external onlyAdmin {\n        require(tokenAddress != address(0), \"Cannot be zero address\");\n        gameToken = tokenAddress;\n\n        emit NewGameToken(tokenAddress);\n    }\n\n    function enterGame(uint256 _roundId) external whenNotPaused nonReentrant notContract {\n        require(_roundId != 0, \"missing RoundId\");\n\n        RoundInfo storage roundInfo = ledger[_roundId];\n        if (roundInfo.playerAddress != address(0x0)) {\n            revert(\"existing roundId\");\n        }\n\n        bool success = IERC20(gameToken).transferFrom(msg.sender, address(this), gameFee);\n\n        if (success) {\n            roundInfo.playerAddress = msg.sender;\n            roundInfo.amount = gameFee;\n            roundInfo.roundId = _roundId;\n            userRounds[msg.sender].push(_roundId);\n\n            emit GameEntered(_roundId, msg.sender, gameFee);\n        } else {\n            revert(\"round was not paid for\");\n        }\n    }\n\n    function claim() external whenNotPaused nonReentrant notContract {\n        uint256 claimValue = userWinnings[msg.sender];\n        if (claimValue == 0) {\n            revert(\"nothing to claim\");\n        }\n\n        userWinnings[msg.sender] = 0;\n        for (uint256 i = 0; i < userRounds[msg.sender].length; i++) {\n            uint256 round = userRounds[msg.sender][i];\n            RoundInfo storage legerRound = ledger[round];\n            if (legerRound.updated && !legerRound.claimed) {\n\n                legerRound.claimed = true;\n            }\n        }\n\n        IERC20(gameToken).transfer(msg.sender, claimValue);\n        emit PlayerClaimed(msg.sender, claimValue);\n\n    }\n\n    function setRoundResult(uint256 _roundId, uint256 _amount) external onlyOperator {\n        if (ledger[_roundId].playerAddress == address(0x0)) {\n            revert(\"not existing roundId\");\n        }\n        RoundInfo storage roundInfo = ledger[_roundId];\n        roundInfo.amount = _amount;\n        roundInfo.updated = true;\n\n        userWinnings[roundInfo.playerAddress] = userWinnings[roundInfo.playerAddress] + _amount;\n\n        emit ResultUpdated(_roundId, _amount);\n    }\n\n    function claimTreasury(uint256 value) external nonReentrant onlyAdmin {\n        IERC20(gameToken).transfer(adminAddress, value);\n\n        emit TreasuryClaim(value);\n    }\n\n    function getUserWinnings(address _address) external view returns (uint256) {\n        return userWinnings[_address];\n    }\n\n    function getUserRounds(address _address) external view returns (uint256[] memory) {\n        return userRounds[_address];\n    }\n\n    function getLegerEntryForRoundId(uint256 _roundId) external view returns (RoundInfo memory) {\n        return ledger[_roundId];\n    }\n\n    function _isContract(address account) internal view returns (bool) {\n        uint256 size;\n        assembly {\n            size := extcodesize(account)\n        }\n        return size > 0;\n    }\n}\n",
  "sourcePath": "/Users/slavpilus/dev/unity/arcadechain-slot/Site/contracts/Slot.sol",
  "compiler": {
    "name": "solc",
    "version": "0.8.14+commit.80d49f37.Emscripten.clang"
  },
  "schemaVersion": "3.4.7",
  "updatedAt": "2022-09-01T06:07:20.331Z",
  "devdoc": {
    "kind": "dev",
    "methods": {
      "owner()": {
        "details": "Returns the address of the current owner."
      },
      "paused()": {
        "details": "Returns true if the contract is paused, and false otherwise."
      },
      "renounceOwnership()": {
        "details": "Leaves the contract without owner. It will not be possible to call `onlyOwner` functions anymore. Can only be called by the current owner. NOTE: Renouncing ownership will leave the contract without an owner, thereby removing any functionality that is only available to the owner."
      },
      "transferOwnership(address)": {
        "details": "Transfers ownership of the contract to a new account (`newOwner`). Can only be called by the current owner."
      }
    },
    "version": 1
  },
  "userdoc": {
    "kind": "user",
    "methods": {},
    "version": 1
  }
}