{
  "contractName": "ACNFT",
  "abi": [
    {
      "inputs": [],
      "stateMutability": "nonpayable",
      "type": "constructor"
    },
    {
      "anonymous": false,
      "inputs": [
        {
          "indexed": true,
          "internalType": "address",
          "name": "account",
          "type": "address"
        },
        {
          "indexed": true,
          "internalType": "address",
          "name": "operator",
          "type": "address"
        },
        {
          "indexed": false,
          "internalType": "bool",
          "name": "approved",
          "type": "bool"
        }
      ],
      "name": "ApprovalForAll",
      "type": "event"
    },
    {
      "anonymous": false,
      "inputs": [
        {
          "indexed": true,
          "internalType": "address",
          "name": "previousOwner",
          "type": "address"
        },
        {
          "indexed": true,
          "internalType": "address",
          "name": "newOwner",
          "type": "address"
        }
      ],
      "name": "OwnershipTransferred",
      "type": "event"
    },
    {
      "anonymous": false,
      "inputs": [
        {
          "indexed": true,
          "internalType": "address",
          "name": "operator",
          "type": "address"
        },
        {
          "indexed": true,
          "internalType": "address",
          "name": "from",
          "type": "address"
        },
        {
          "indexed": true,
          "internalType": "address",
          "name": "to",
          "type": "address"
        },
        {
          "indexed": false,
          "internalType": "uint256[]",
          "name": "ids",
          "type": "uint256[]"
        },
        {
          "indexed": false,
          "internalType": "uint256[]",
          "name": "values",
          "type": "uint256[]"
        }
      ],
      "name": "TransferBatch",
      "type": "event"
    },
    {
      "anonymous": false,
      "inputs": [
        {
          "indexed": true,
          "internalType": "address",
          "name": "operator",
          "type": "address"
        },
        {
          "indexed": true,
          "internalType": "address",
          "name": "from",
          "type": "address"
        },
        {
          "indexed": true,
          "internalType": "address",
          "name": "to",
          "type": "address"
        },
        {
          "indexed": false,
          "internalType": "uint256",
          "name": "id",
          "type": "uint256"
        },
        {
          "indexed": false,
          "internalType": "uint256",
          "name": "value",
          "type": "uint256"
        }
      ],
      "name": "TransferSingle",
      "type": "event"
    },
    {
      "anonymous": false,
      "inputs": [
        {
          "indexed": false,
          "internalType": "string",
          "name": "value",
          "type": "string"
        },
        {
          "indexed": true,
          "internalType": "uint256",
          "name": "id",
          "type": "uint256"
        }
      ],
      "name": "URI",
      "type": "event"
    },
    {
      "inputs": [],
      "name": "LEGENDARY",
      "outputs": [
        {
          "internalType": "uint256",
          "name": "",
          "type": "uint256"
        }
      ],
      "stateMutability": "view",
      "type": "function"
    },
    {
      "inputs": [],
      "name": "NORMAL",
      "outputs": [
        {
          "internalType": "uint256",
          "name": "",
          "type": "uint256"
        }
      ],
      "stateMutability": "view",
      "type": "function"
    },
    {
      "inputs": [],
      "name": "RARE",
      "outputs": [
        {
          "internalType": "uint256",
          "name": "",
          "type": "uint256"
        }
      ],
      "stateMutability": "view",
      "type": "function"
    },
    {
      "inputs": [
        {
          "internalType": "address",
          "name": "account",
          "type": "address"
        },
        {
          "internalType": "uint256",
          "name": "id",
          "type": "uint256"
        }
      ],
      "name": "balanceOf",
      "outputs": [
        {
          "internalType": "uint256",
          "name": "",
          "type": "uint256"
        }
      ],
      "stateMutability": "view",
      "type": "function"
    },
    {
      "inputs": [
        {
          "internalType": "address[]",
          "name": "accounts",
          "type": "address[]"
        },
        {
          "internalType": "uint256[]",
          "name": "ids",
          "type": "uint256[]"
        }
      ],
      "name": "balanceOfBatch",
      "outputs": [
        {
          "internalType": "uint256[]",
          "name": "",
          "type": "uint256[]"
        }
      ],
      "stateMutability": "view",
      "type": "function"
    },
    {
      "inputs": [
        {
          "internalType": "address",
          "name": "account",
          "type": "address"
        },
        {
          "internalType": "address",
          "name": "operator",
          "type": "address"
        }
      ],
      "name": "isApprovedForAll",
      "outputs": [
        {
          "internalType": "bool",
          "name": "",
          "type": "bool"
        }
      ],
      "stateMutability": "view",
      "type": "function"
    },
    {
      "inputs": [],
      "name": "owner",
      "outputs": [
        {
          "internalType": "address",
          "name": "",
          "type": "address"
        }
      ],
      "stateMutability": "view",
      "type": "function"
    },
    {
      "inputs": [],
      "name": "renounceOwnership",
      "outputs": [],
      "stateMutability": "nonpayable",
      "type": "function"
    },
    {
      "inputs": [
        {
          "internalType": "address",
          "name": "from",
          "type": "address"
        },
        {
          "internalType": "address",
          "name": "to",
          "type": "address"
        },
        {
          "internalType": "uint256[]",
          "name": "ids",
          "type": "uint256[]"
        },
        {
          "internalType": "uint256[]",
          "name": "amounts",
          "type": "uint256[]"
        },
        {
          "internalType": "bytes",
          "name": "data",
          "type": "bytes"
        }
      ],
      "name": "safeBatchTransferFrom",
      "outputs": [],
      "stateMutability": "nonpayable",
      "type": "function"
    },
    {
      "inputs": [
        {
          "internalType": "address",
          "name": "from",
          "type": "address"
        },
        {
          "internalType": "address",
          "name": "to",
          "type": "address"
        },
        {
          "internalType": "uint256",
          "name": "id",
          "type": "uint256"
        },
        {
          "internalType": "uint256",
          "name": "amount",
          "type": "uint256"
        },
        {
          "internalType": "bytes",
          "name": "data",
          "type": "bytes"
        }
      ],
      "name": "safeTransferFrom",
      "outputs": [],
      "stateMutability": "nonpayable",
      "type": "function"
    },
    {
      "inputs": [
        {
          "internalType": "address",
          "name": "operator",
          "type": "address"
        },
        {
          "internalType": "bool",
          "name": "approved",
          "type": "bool"
        }
      ],
      "name": "setApprovalForAll",
      "outputs": [],
      "stateMutability": "nonpayable",
      "type": "function"
    },
    {
      "inputs": [
        {
          "internalType": "bytes4",
          "name": "interfaceId",
          "type": "bytes4"
        }
      ],
      "name": "supportsInterface",
      "outputs": [
        {
          "internalType": "bool",
          "name": "",
          "type": "bool"
        }
      ],
      "stateMutability": "view",
      "type": "function"
    },
    {
      "inputs": [
        {
          "internalType": "address",
          "name": "newOwner",
          "type": "address"
        }
      ],
      "name": "transferOwnership",
      "outputs": [],
      "stateMutability": "nonpayable",
      "type": "function"
    },
    {
      "inputs": [
        {
          "internalType": "uint256",
          "name": "tokenId",
          "type": "uint256"
        }
      ],
      "name": "uri",
      "outputs": [
        {
          "internalType": "string",
          "name": "",
          "type": "string"
        }
      ],
      "stateMutability": "view",
      "type": "function"
    },
    {
      "inputs": [
        {
          "internalType": "uint256",
          "name": "tokenId",
          "type": "uint256"
        },
        {
          "internalType": "string",
          "name": "uri",
          "type": "string"
        }
      ],
      "name": "setTokenUri",
      "outputs": [],
      "stateMutability": "nonpayable",
      "type": "function"
    }
  ],
  "bytecode": "0x60806040523480156200001157600080fd5b5060405180608001604052806059815260200162002262605991396200003781620000b8565b506200004333620000d1565b620000683360006064604051806020016040528060008152506200012360201b60201c565b6200008d3360016064604051806020016040528060008152506200012360201b60201c565b620000b23360026064604051806020016040528060008152506200012360201b60201c565b6200075b565b8051620000cd90600290602084019062000476565b5050565b600380546001600160a01b038381166001600160a01b0319831681179093556040519116919082907f8be0079c531659141344cd1fd0a4f28419497f9722a3daafe3b4186f6b6457e090600090a35050565b6001600160a01b038416620001895760405162461bcd60e51b815260206004820152602160248201527f455243313135353a206d696e7420746f20746865207a65726f206164647265736044820152607360f81b60648201526084015b60405180910390fd5b336000620001978562000245565b90506000620001a68562000245565b90506000868152602081815260408083206001600160a01b038b16845290915281208054879290620001da9084906200051c565b909155505060408051878152602081018790526001600160a01b03808a1692600092918716917fc3d58168c5ae7397731d063d5bbf3d657854427343f4c083240f7aacaa2d0f62910160405180910390a46200023c836000898989896200029b565b50505050505050565b6040805160018082528183019092526060916000919060208083019080368337019050509050828160008151811062000282576200028262000543565b602090810291909101015292915050565b505050505050565b620002ba846001600160a01b03166200046760201b6200084c1760201c565b15620002935760405163f23a6e6160e01b81526001600160a01b0385169063f23a6e6190620002f69089908990889088908890600401620005a9565b6020604051808303816000875af192505050801562000334575060408051601f3d908101601f191682019092526200033191810190620005f0565b60015b620003f4576200034362000623565b806308c379a0036200038357506200035a6200067b565b8062000367575062000385565b8060405162461bcd60e51b81526004016200018091906200070a565b505b60405162461bcd60e51b815260206004820152603460248201527f455243313135353a207472616e7366657220746f206e6f6e204552433131353560448201527f526563656976657220696d706c656d656e746572000000000000000000000000606482015260840162000180565b6001600160e01b0319811663f23a6e6160e01b146200023c5760405162461bcd60e51b815260206004820152602860248201527f455243313135353a204552433131353552656365697665722072656a656374656044820152676420746f6b656e7360c01b606482015260840162000180565b6001600160a01b03163b151590565b82805462000484906200071f565b90600052602060002090601f016020900481019282620004a85760008555620004f3565b82601f10620004c357805160ff1916838001178555620004f3565b82800160010185558215620004f3579182015b82811115620004f3578251825591602001919060010190620004d6565b506200050192915062000505565b5090565b5b8082111562000501576000815560010162000506565b600082198211156200053e57634e487b7160e01b600052601160045260246000fd5b500190565b634e487b7160e01b600052603260045260246000fd5b6000815180845260005b81811015620005815760208185018101518683018201520162000563565b8181111562000594576000602083870101525b50601f01601f19169290920160200192915050565b6001600160a01b03868116825285166020820152604081018490526060810183905260a060808201819052600090620005e59083018462000559565b979650505050505050565b6000602082840312156200060357600080fd5b81516001600160e01b0319811681146200061c57600080fd5b9392505050565b600060033d11156200063d5760046000803e5060005160e01c5b90565b601f8201601f191681016001600160401b03811182821017156200067457634e487b7160e01b600052604160045260246000fd5b6040525050565b600060443d10156200068a5790565b6040516003193d81016004833e81513d6001600160401b038083116024840183101715620006ba57505050505090565b8285019150815181811115620006d35750505050505090565b843d8701016020828501011115620006ee5750505050505090565b620006ff6020828601018762000640565b509095945050505050565b6020815260006200061c602083018462000559565b600181811c908216806200073457607f821691505b6020821081036200075557634e487b7160e01b600052602260045260246000fd5b50919050565b611af7806200076b6000396000f3fe608060405234801561001057600080fd5b50600436106100f45760003560e01c8063816171c011610097578063e140d1e111610066578063e140d1e1146101f0578063e985e9c5146101f8578063f242432a14610234578063f2fde38b1461024757600080fd5b8063816171c0146101b25780638da5cb5b146101ba578063a22cb465146101d5578063ae24595c146101e857600080fd5b80632eb2c2d6116100d35780632eb2c2d6146101625780634e1273f41461017757806357f7789e14610197578063715018a6146101aa57600080fd5b8062fdd58e146100f957806301ffc9a71461011f5780630e89341c14610142575b600080fd5b61010c61010736600461130d565b61025a565b6040519081526020015b60405180910390f35b61013261012d366004611365565b610303565b6040519015158152602001610116565b610155610150366004611389565b6103e8565b60405161011691906113ef565b610175610170366004611558565b61048a565b005b61018a610185366004611602565b61052c565b6040516101169190611708565b6101756101a536600461171b565b61066a565b6101756106fe565b61010c600181565b6003546040516001600160a01b039091168152602001610116565b6101756101e336600461176c565b610712565b61010c600081565b61010c600281565b6101326102063660046117a8565b6001600160a01b03918216600090815260016020908152604080832093909416825291909152205460ff1690565b6101756102423660046117db565b610721565b610175610255366004611840565b6107bc565b60006001600160a01b0383166102dd5760405162461bcd60e51b815260206004820152602a60248201527f455243313135353a2061646472657373207a65726f206973206e6f742061207660448201527f616c6964206f776e65720000000000000000000000000000000000000000000060648201526084015b60405180910390fd5b506000908152602081815260408083206001600160a01b03949094168352929052205490565b60007fffffffff0000000000000000000000000000000000000000000000000000000082167fd9b67a2600000000000000000000000000000000000000000000000000000000148061039657507fffffffff0000000000000000000000000000000000000000000000000000000082167f0e89341c00000000000000000000000000000000000000000000000000000000145b806103e257507f01ffc9a7000000000000000000000000000000000000000000000000000000007fffffffff000000000000000000000000000000000000000000000000000000008316145b92915050565b60008181526004602052604090208054606091906104059061185b565b80601f01602080910402602001604051908101604052809291908181526020018280546104319061185b565b801561047e5780601f106104535761010080835404028352916020019161047e565b820191906000526020600020905b81548152906001019060200180831161046157829003601f168201915b50505050509050919050565b6001600160a01b0385163314806104a657506104a68533610206565b6105185760405162461bcd60e51b815260206004820152602f60248201527f455243313135353a2063616c6c6572206973206e6f7420746f6b656e206f776e60448201527f6572206e6f7220617070726f766564000000000000000000000000000000000060648201526084016102d4565b610525858585858561085b565b5050505050565b606081518351146105a55760405162461bcd60e51b815260206004820152602960248201527f455243313135353a206163636f756e747320616e6420696473206c656e67746860448201527f206d69736d61746368000000000000000000000000000000000000000000000060648201526084016102d4565b6000835167ffffffffffffffff8111156105c1576105c1611402565b6040519080825280602002602001820160405280156105ea578160200160208202803683370190505b50905060005b84518110156106625761063585828151811061060e5761060e611895565b602002602001015185838151811061062857610628611895565b602002602001015161025a565b82828151811061064757610647611895565b602090810291909101015261065b816118c1565b90506105f0565b509392505050565b610672610af9565b6000828152600460205260409020805461068b9061185b565b1590506106da5760405162461bcd60e51b815260206004820152601460248201527f43616e6e6f74207365742075726920747769636500000000000000000000000060448201526064016102d4565b600082815260046020908152604090912082516106f992840190611258565b505050565b610706610af9565b6107106000610b53565b565b61071d338383610bbd565b5050565b6001600160a01b03851633148061073d575061073d8533610206565b6107af5760405162461bcd60e51b815260206004820152602f60248201527f455243313135353a2063616c6c6572206973206e6f7420746f6b656e206f776e60448201527f6572206e6f7220617070726f766564000000000000000000000000000000000060648201526084016102d4565b6105258585858585610ccf565b6107c4610af9565b6001600160a01b0381166108405760405162461bcd60e51b815260206004820152602660248201527f4f776e61626c653a206e6577206f776e657220697320746865207a65726f206160448201527f646472657373000000000000000000000000000000000000000000000000000060648201526084016102d4565b61084981610b53565b50565b6001600160a01b03163b151590565b81518351146108d25760405162461bcd60e51b815260206004820152602860248201527f455243313135353a2069647320616e6420616d6f756e7473206c656e6774682060448201527f6d69736d6174636800000000000000000000000000000000000000000000000060648201526084016102d4565b6001600160a01b03841661094e5760405162461bcd60e51b815260206004820152602560248201527f455243313135353a207472616e7366657220746f20746865207a65726f20616460448201527f647265737300000000000000000000000000000000000000000000000000000060648201526084016102d4565b3360005b8451811015610a8b57600085828151811061096f5761096f611895565b60200260200101519050600085838151811061098d5761098d611895565b602090810291909101810151600084815280835260408082206001600160a01b038e168352909352919091205490915081811015610a335760405162461bcd60e51b815260206004820152602a60248201527f455243313135353a20696e73756666696369656e742062616c616e636520666f60448201527f72207472616e736665720000000000000000000000000000000000000000000060648201526084016102d4565b6000838152602081815260408083206001600160a01b038e8116855292528083208585039055908b16825281208054849290610a709084906118f9565b9250508190555050505080610a84906118c1565b9050610952565b50846001600160a01b0316866001600160a01b0316826001600160a01b03167f4a39dc06d4c0dbc64b70af90fd698a233a518aa5d07e595d983b8c0526c8f7fb8787604051610adb929190611911565b60405180910390a4610af1818787878787610ea5565b505050505050565b6003546001600160a01b031633146107105760405162461bcd60e51b815260206004820181905260248201527f4f776e61626c653a2063616c6c6572206973206e6f7420746865206f776e657260448201526064016102d4565b600380546001600160a01b038381167fffffffffffffffffffffffff0000000000000000000000000000000000000000831681179093556040519116919082907f8be0079c531659141344cd1fd0a4f28419497f9722a3daafe3b4186f6b6457e090600090a35050565b816001600160a01b0316836001600160a01b031603610c445760405162461bcd60e51b815260206004820152602960248201527f455243313135353a2073657474696e6720617070726f76616c2073746174757360448201527f20666f722073656c66000000000000000000000000000000000000000000000060648201526084016102d4565b6001600160a01b0383811660008181526001602090815260408083209487168084529482529182902080547fffffffffffffffffffffffffffffffffffffffffffffffffffffffffffffff001686151590811790915591519182527f17307eab39ab6107e8899845ad3d59bd9653f200f220920489ca2b5937696c31910160405180910390a3505050565b6001600160a01b038416610d4b5760405162461bcd60e51b815260206004820152602560248201527f455243313135353a207472616e7366657220746f20746865207a65726f20616460448201527f647265737300000000000000000000000000000000000000000000000000000060648201526084016102d4565b336000610d57856110b2565b90506000610d64856110b2565b90506000868152602081815260408083206001600160a01b038c16845290915290205485811015610dfd5760405162461bcd60e51b815260206004820152602a60248201527f455243313135353a20696e73756666696369656e742062616c616e636520666f60448201527f72207472616e736665720000000000000000000000000000000000000000000060648201526084016102d4565b6000878152602081815260408083206001600160a01b038d8116855292528083208985039055908a16825281208054889290610e3a9084906118f9565b909155505060408051888152602081018890526001600160a01b03808b16928c821692918816917fc3d58168c5ae7397731d063d5bbf3d657854427343f4c083240f7aacaa2d0f62910160405180910390a4610e9a848a8a8a8a8a6110fd565b505050505050505050565b6001600160a01b0384163b15610af1576040517fbc197c810000000000000000000000000000000000000000000000000000000081526001600160a01b0385169063bc197c8190610f02908990899088908890889060040161193f565b6020604051808303816000875af1925050508015610f3d575060408051601f3d908101601f19168201909252610f3a9181019061199d565b60015b610ff257610f496119ba565b806308c379a003610f825750610f5d6119d6565b80610f685750610f84565b8060405162461bcd60e51b81526004016102d491906113ef565b505b60405162461bcd60e51b815260206004820152603460248201527f455243313135353a207472616e7366657220746f206e6f6e204552433131353560448201527f526563656976657220696d706c656d656e74657200000000000000000000000060648201526084016102d4565b7fffffffff0000000000000000000000000000000000000000000000000000000081167fbc197c8100000000000000000000000000000000000000000000000000000000146110a95760405162461bcd60e51b815260206004820152602860248201527f455243313135353a204552433131353552656365697665722072656a6563746560448201527f6420746f6b656e7300000000000000000000000000000000000000000000000060648201526084016102d4565b50505050505050565b604080516001808252818301909252606091600091906020808301908036833701905050905082816000815181106110ec576110ec611895565b602090810291909101015292915050565b6001600160a01b0384163b15610af1576040517ff23a6e610000000000000000000000000000000000000000000000000000000081526001600160a01b0385169063f23a6e619061115a9089908990889088908890600401611a7e565b6020604051808303816000875af1925050508015611195575060408051601f3d908101601f191682019092526111929181019061199d565b60015b6111a157610f496119ba565b7fffffffff0000000000000000000000000000000000000000000000000000000081167ff23a6e6100000000000000000000000000000000000000000000000000000000146110a95760405162461bcd60e51b815260206004820152602860248201527f455243313135353a204552433131353552656365697665722072656a6563746560448201527f6420746f6b656e7300000000000000000000000000000000000000000000000060648201526084016102d4565b8280546112649061185b565b90600052602060002090601f01602090048101928261128657600085556112cc565b82601f1061129f57805160ff19168380011785556112cc565b828001600101855582156112cc579182015b828111156112cc5782518255916020019190600101906112b1565b506112d89291506112dc565b5090565b5b808211156112d857600081556001016112dd565b80356001600160a01b038116811461130857600080fd5b919050565b6000806040838503121561132057600080fd5b611329836112f1565b946020939093013593505050565b7fffffffff000000000000000000000000000000000000000000000000000000008116811461084957600080fd5b60006020828403121561137757600080fd5b813561138281611337565b9392505050565b60006020828403121561139b57600080fd5b5035919050565b6000815180845260005b818110156113c8576020818501810151868301820152016113ac565b818111156113da576000602083870101525b50601f01601f19169290920160200192915050565b60208152600061138260208301846113a2565b634e487b7160e01b600052604160045260246000fd5b601f19601f830116810181811067ffffffffffffffff8211171561143e5761143e611402565b6040525050565b600067ffffffffffffffff82111561145f5761145f611402565b5060051b60200190565b600082601f83011261147a57600080fd5b8135602061148782611445565b6040516114948282611418565b83815260059390931b85018201928281019150868411156114b457600080fd5b8286015b848110156114cf57803583529183019183016114b8565b509695505050505050565b600067ffffffffffffffff8311156114f4576114f4611402565b60405161150b6020601f19601f8701160182611418565b80915083815284848401111561152057600080fd5b83836020830137600060208583010152509392505050565b600082601f83011261154957600080fd5b611382838335602085016114da565b600080600080600060a0868803121561157057600080fd5b611579866112f1565b9450611587602087016112f1565b9350604086013567ffffffffffffffff808211156115a457600080fd5b6115b089838a01611469565b945060608801359150808211156115c657600080fd5b6115d289838a01611469565b935060808801359150808211156115e857600080fd5b506115f588828901611538565b9150509295509295909350565b6000806040838503121561161557600080fd5b823567ffffffffffffffff8082111561162d57600080fd5b818501915085601f83011261164157600080fd5b8135602061164e82611445565b60405161165b8282611418565b83815260059390931b850182019282810191508984111561167b57600080fd5b948201945b838610156116a057611691866112f1565b82529482019490820190611680565b965050860135925050808211156116b657600080fd5b506116c385828601611469565b9150509250929050565b600081518084526020808501945080840160005b838110156116fd578151875295820195908201906001016116e1565b509495945050505050565b60208152600061138260208301846116cd565b6000806040838503121561172e57600080fd5b82359150602083013567ffffffffffffffff81111561174c57600080fd5b8301601f8101851361175d57600080fd5b6116c3858235602084016114da565b6000806040838503121561177f57600080fd5b611788836112f1565b91506020830135801515811461179d57600080fd5b809150509250929050565b600080604083850312156117bb57600080fd5b6117c4836112f1565b91506117d2602084016112f1565b90509250929050565b600080600080600060a086880312156117f357600080fd5b6117fc866112f1565b945061180a602087016112f1565b93506040860135925060608601359150608086013567ffffffffffffffff81111561183457600080fd5b6115f588828901611538565b60006020828403121561185257600080fd5b611382826112f1565b600181811c9082168061186f57607f821691505b60208210810361188f57634e487b7160e01b600052602260045260246000fd5b50919050565b634e487b7160e01b600052603260045260246000fd5b634e487b7160e01b600052601160045260246000fd5b60007fffffffffffffffffffffffffffffffffffffffffffffffffffffffffffffffff82036118f2576118f26118ab565b5060010190565b6000821982111561190c5761190c6118ab565b500190565b60408152600061192460408301856116cd565b828103602084015261193681856116cd565b95945050505050565b60006001600160a01b03808816835280871660208401525060a0604083015261196b60a08301866116cd565b828103606084015261197d81866116cd565b9050828103608084015261199181856113a2565b98975050505050505050565b6000602082840312156119af57600080fd5b815161138281611337565b600060033d11156119d35760046000803e5060005160e01c5b90565b600060443d10156119e45790565b6040517ffffffffffffffffffffffffffffffffffffffffffffffffffffffffffffffffc803d016004833e81513d67ffffffffffffffff8160248401118184111715611a3257505050505090565b8285019150815181811115611a4a5750505050505090565b843d8701016020828501011115611a645750505050505090565b611a7360208286010187611418565b509095945050505050565b60006001600160a01b03808816835280871660208401525084604083015283606083015260a06080830152611ab660a08301846113a2565b97965050505050505056fea2646970667358221220ba4c3131072891c8b3ce3d51582f73e779a267584126914b3a042611377e3a9564736f6c634300080e003368747470733a2f2f6261667962656962727a7073626863736f666f67616c716b32676877783471786468697764686167696a643673746c76367269326b6478656a35652e697066732e6e667473746f726167652e6c696e6b2f",
  "immutableReferences": {},
  "source": "// SPDX-License-Identifier: MIT\n\npragma solidity ^0.8.7;\n\nimport \"@openzeppelin/contracts/token/ERC1155/ERC1155.sol\";\nimport \"@openzeppelin/contracts/access/Ownable.sol\";\nimport \"@openzeppelin/contracts/utils/Strings.sol\";\n\ncontract ACNFT is ERC1155, Ownable {\n\n    uint256 public constant NORMAL = 0;\n    uint256 public constant RARE= 1;\n    uint256 public constant LEGENDARY= 2;\n\n    mapping (uint256 => string) private _uris; // tokenId to uri string\n\n    constructor() public ERC1155(\"https://bafybeibrzpsbhcsofogalqk2ghwx4qxdhiwdhagijd6stlv6ri2kdxej5e.ipfs.nftstorage.link/\") {\n        _mint(msg.sender, NORMAL, 100, \"\");\n        _mint(msg.sender, RARE, 100, \"\");\n        _mint(msg.sender, LEGENDARY, 100, \"\");\n    }\n\n    function uri(uint256 tokenId) override public view returns (string memory) {\n        return(_uris[tokenId]);\n    }\n\n    function setTokenUri(uint256 tokenId, string memory uri) public onlyOwner {\n        require(bytes(_uris[tokenId]).length == 0, \"Cannot set uri twice\");\n        _uris[tokenId] = uri;\n    }\n}",
  "sourcePath": "/Users/slavpilus/dev/unity/arcadechain-slot/SmartContract/contracts/ACNFT.sol",
  "compiler": {
    "name": "solc",
    "version": "0.8.14+commit.80d49f37.Emscripten.clang"
  },
  "schemaVersion": "3.4.7",
  "updatedAt": "2022-09-09T09:04:21.575Z",
  "devdoc": {
    "kind": "dev",
    "methods": {
      "balanceOf(address,uint256)": {
        "details": "See {IERC1155-balanceOf}. Requirements: - `account` cannot be the zero address."
      },
      "balanceOfBatch(address[],uint256[])": {
        "details": "See {IERC1155-balanceOfBatch}. Requirements: - `accounts` and `ids` must have the same length."
      },
      "isApprovedForAll(address,address)": {
        "details": "See {IERC1155-isApprovedForAll}."
      },
      "owner()": {
        "details": "Returns the address of the current owner."
      },
      "renounceOwnership()": {
        "details": "Leaves the contract without owner. It will not be possible to call `onlyOwner` functions anymore. Can only be called by the current owner. NOTE: Renouncing ownership will leave the contract without an owner, thereby removing any functionality that is only available to the owner."
      },
      "safeBatchTransferFrom(address,address,uint256[],uint256[],bytes)": {
        "details": "See {IERC1155-safeBatchTransferFrom}."
      },
      "safeTransferFrom(address,address,uint256,uint256,bytes)": {
        "details": "See {IERC1155-safeTransferFrom}."
      },
      "setApprovalForAll(address,bool)": {
        "details": "See {IERC1155-setApprovalForAll}."
      },
      "supportsInterface(bytes4)": {
        "details": "See {IERC165-supportsInterface}."
      },
      "transferOwnership(address)": {
        "details": "Transfers ownership of the contract to a new account (`newOwner`). Can only be called by the current owner."
      }
    },
    "version": 1
  },
  "userdoc": {
    "kind": "user",
    "methods": {},
    "version": 1
  }
}