{
  "contractName": "RandomTest",
  "abi": [
    {
      "inputs": [
        {
          "internalType": "contract IWitnetRandomness",
          "name": "_witnetRandomness",
          "type": "address"
        }
      ],
      "stateMutability": "nonpayable",
      "type": "constructor"
    },
    {
      "inputs": [],
      "name": "latestRandomizingBlock",
      "outputs": [
        {
          "internalType": "uint256",
          "name": "",
          "type": "uint256"
        }
      ],
      "stateMutability": "view",
      "type": "function"
    },
    {
      "inputs": [],
      "name": "randomness",
      "outputs": [
        {
          "internalType": "bytes32",
          "name": "",
          "type": "bytes32"
        }
      ],
      "stateMutability": "view",
      "type": "function"
    },
    {
      "inputs": [],
      "name": "witnet",
      "outputs": [
        {
          "internalType": "contract IWitnetRandomness",
          "name": "",
          "type": "address"
        }
      ],
      "stateMutability": "view",
      "type": "function"
    },
    {
      "stateMutability": "payable",
      "type": "receive"
    },
    {
      "inputs": [],
      "name": "requestRandomness",
      "outputs": [],
      "stateMutability": "payable",
      "type": "function"
    },
    {
      "inputs": [],
      "name": "fetchRandomness",
      "outputs": [],
      "stateMutability": "nonpayable",
      "type": "function"
    },
    {
      "inputs": [],
      "name": "getRandomNo",
      "outputs": [
        {
          "internalType": "uint32",
          "name": "",
          "type": "uint32"
        }
      ],
      "stateMutability": "view",
      "type": "function"
    }
  ],
  "bytecode": "0x60a060405234801561001057600080fd5b5060405161057f38038061057f83398101604081905261002f91610056565b6001600160a01b03811661004557610045610086565b6001600160a01b031660805261009c565b60006020828403121561006857600080fd5b81516001600160a01b038116811461007f57600080fd5b9392505050565b634e487b7160e01b600052600160045260246000fd5b6080516104b46100cb6000396000818160b00152818161019b0152818161027c01526102f601526104b46000f3fe6080604052600436106100695760003560e01c8063b1fa417611610043578063b1fa41761461010e578063c812846814610124578063f8413b071461014e57600080fd5b8063360131891461007557806346d1d21a1461009e578063482ad47c146100f757600080fd5b3661007057005b600080fd5b34801561008157600080fd5b5061008b60005481565b6040519081526020015b60405180910390f35b3480156100aa57600080fd5b506100d27f000000000000000000000000000000000000000000000000000000000000000081565b60405173ffffffffffffffffffffffffffffffffffffffff9091168152602001610095565b34801561010357600080fd5b5061010c610156565b005b34801561011a57600080fd5b5061008b60015481565b34801561013057600080fd5b50610139610220565b60405163ffffffff9091168152602001610095565b61010c6102eb565b600060015411610168576101686103cb565b6001546040517ffb476cad00000000000000000000000000000000000000000000000000000000815260048101919091527f000000000000000000000000000000000000000000000000000000000000000073ffffffffffffffffffffffffffffffffffffffff169063fb476cad90602401602060405180830381865afa1580156101f7573d6000803e3d6000fd5b505050506040513d601f19601f8201168201806040525081019061021b91906103fa565b600055565b6001546040517f24cbbfc10000000000000000000000000000000000000000000000000000000081526064600482018190526000602483018190526044830193909352829173ffffffffffffffffffffffffffffffffffffffff7f000000000000000000000000000000000000000000000000000000000000000016916324cbbfc19101602060405180830381865afa1580156102c1573d6000803e3d6000fd5b505050506040513d601f19601f820116820180604052508101906102e59190610413565b92915050565b4360018190555060007f000000000000000000000000000000000000000000000000000000000000000073ffffffffffffffffffffffffffffffffffffffff1663699b328a346040518263ffffffff1660e01b815260040160206040518083038185885af1158015610361573d6000803e3d6000fd5b50505050506040513d601f19601f8201168201806040525081019061038691906103fa565b9050348110156103c857336108fc61039e8334610440565b6040518115909202916000818181858888f193505050501580156103c6573d6000803e3d6000fd5b505b50565b7f4e487b7100000000000000000000000000000000000000000000000000000000600052600160045260246000fd5b60006020828403121561040c57600080fd5b5051919050565b60006020828403121561042557600080fd5b815163ffffffff8116811461043957600080fd5b9392505050565b600082821015610479577f4e487b7100000000000000000000000000000000000000000000000000000000600052601160045260246000fd5b50039056fea264697066735822122083f631fffd95072c0fafe8bf72d92af82845c0071bd118433e0f80ae7fd581b064736f6c634300080e0033",
  "immutableReferences": {
    "9": [
      {
        "length": 32,
        "start": 176
      },
      {
        "length": 32,
        "start": 411
      },
      {
        "length": 32,
        "start": 636
      },
      {
        "length": 32,
        "start": 758
      }
    ]
  },
  "source": "// SPDX-License-Identifier: MIT\n\n\npragma solidity >=0.7.0 <0.9.0;\n\nimport \"witnet-solidity-bridge/contracts/interfaces/IWitnetRandomness.sol\";\n\ncontract RandomTest {\n    bytes32 public randomness;\n    uint256 public latestRandomizingBlock;\n    IWitnetRandomness immutable public witnet;\n\n    /// @param _witnetRandomness Address of the WitnetRandomness contract.\n    constructor (IWitnetRandomness _witnetRandomness) {\n        assert(address(_witnetRandomness) != address(0));\n        witnet = _witnetRandomness;\n    }\n\n    receive () external payable {}\n\n    function requestRandomness() external payable {\n        latestRandomizingBlock = block.number;\n        uint _usedFunds = witnet.randomize{ value: msg.value }();\n        if (_usedFunds < msg.value) {\n            payable(msg.sender).transfer(msg.value - _usedFunds);\n        }\n    }\n\n    function fetchRandomness() external {\n        assert(latestRandomizingBlock > 0);\n        randomness = witnet.getRandomnessAfter(latestRandomizingBlock);\n    }\n\n    function getRandomNo() external view returns (uint32) {\n\n        uint32 luckyNumber = witnet.random(\n            100,\n            0,\n            latestRandomizingBlock\n        );\n        return luckyNumber;\n    }\n}\n",
  "sourcePath": "/Users/slavpilus/dev/unity/arcadechain-slot/SmartContract/contracts/RandomTest.sol",
  "compiler": {
    "name": "solc",
    "version": "0.8.14+commit.80d49f37.Emscripten.clang"
  },
  "schemaVersion": "3.4.7",
  "updatedAt": "2022-09-04T07:58:55.338Z",
  "devdoc": {
    "kind": "dev",
    "methods": {
      "constructor": {
        "params": {
          "_witnetRandomness": "Address of the WitnetRandomness contract."
        }
      }
    },
    "version": 1
  },
  "userdoc": {
    "kind": "user",
    "methods": {},
    "version": 1
  }
}