{
  "contractName": "Slot",
  "abi": [
    {
      "inputs": [
        {
          "internalType": "address",
          "name": "_adminAddress",
          "type": "address"
        },
        {
          "internalType": "address",
          "name": "_operatorAddress",
          "type": "address"
        },
        {
          "internalType": "address",
          "name": "_gameTokenAddress",
          "type": "address"
        },
        {
          "internalType": "uint256",
          "name": "_gameFee",
          "type": "uint256"
        }
      ],
      "stateMutability": "nonpayable",
      "type": "constructor"
    },
    {
      "anonymous": false,
      "inputs": [
        {
          "indexed": false,
          "internalType": "uint256",
          "name": "roundId",
          "type": "uint256"
        },
        {
          "indexed": false,
          "internalType": "address",
          "name": "user",
          "type": "address"
        },
        {
          "indexed": false,
          "internalType": "uint256",
          "name": "gameFee",
          "type": "uint256"
        },
        {
          "indexed": false,
          "internalType": "uint8",
          "name": "bracket",
          "type": "uint8"
        },
        {
          "indexed": false,
          "internalType": "uint256",
          "name": "amount",
          "type": "uint256"
        }
      ],
      "name": "GameEntered",
      "type": "event"
    },
    {
      "anonymous": false,
      "inputs": [
        {
          "indexed": false,
          "internalType": "uint256",
          "name": "gameFee",
          "type": "uint256"
        }
      ],
      "name": "GameFeeSet",
      "type": "event"
    },
    {
      "anonymous": false,
      "inputs": [
        {
          "indexed": false,
          "internalType": "address",
          "name": "tokenAddress",
          "type": "address"
        }
      ],
      "name": "NewGameToken",
      "type": "event"
    },
    {
      "anonymous": false,
      "inputs": [
        {
          "indexed": false,
          "internalType": "address",
          "name": "operator",
          "type": "address"
        }
      ],
      "name": "NewOperatorAddress",
      "type": "event"
    },
    {
      "anonymous": false,
      "inputs": [
        {
          "indexed": true,
          "internalType": "address",
          "name": "previousOwner",
          "type": "address"
        },
        {
          "indexed": true,
          "internalType": "address",
          "name": "newOwner",
          "type": "address"
        }
      ],
      "name": "OwnershipTransferred",
      "type": "event"
    },
    {
      "anonymous": false,
      "inputs": [
        {
          "indexed": false,
          "internalType": "address",
          "name": "account",
          "type": "address"
        }
      ],
      "name": "Paused",
      "type": "event"
    },
    {
      "anonymous": false,
      "inputs": [
        {
          "indexed": false,
          "internalType": "address",
          "name": "player",
          "type": "address"
        },
        {
          "indexed": false,
          "internalType": "uint256",
          "name": "amount",
          "type": "uint256"
        }
      ],
      "name": "PlayerClaimed",
      "type": "event"
    },
    {
      "anonymous": false,
      "inputs": [
        {
          "indexed": false,
          "internalType": "uint256",
          "name": "roundId",
          "type": "uint256"
        },
        {
          "indexed": false,
          "internalType": "uint256",
          "name": "amount",
          "type": "uint256"
        },
        {
          "indexed": false,
          "internalType": "uint8",
          "name": "bracket",
          "type": "uint8"
        }
      ],
      "name": "ResultUpdated",
      "type": "event"
    },
    {
      "anonymous": false,
      "inputs": [
        {
          "indexed": false,
          "internalType": "uint256",
          "name": "amount",
          "type": "uint256"
        }
      ],
      "name": "TreasuryClaim",
      "type": "event"
    },
    {
      "anonymous": false,
      "inputs": [
        {
          "indexed": false,
          "internalType": "address",
          "name": "account",
          "type": "address"
        }
      ],
      "name": "Unpaused",
      "type": "event"
    },
    {
      "inputs": [],
      "name": "adminAddress",
      "outputs": [
        {
          "internalType": "address",
          "name": "",
          "type": "address"
        }
      ],
      "stateMutability": "view",
      "type": "function"
    },
    {
      "inputs": [
        {
          "internalType": "uint256",
          "name": "",
          "type": "uint256"
        }
      ],
      "name": "brackets",
      "outputs": [
        {
          "internalType": "uint8",
          "name": "",
          "type": "uint8"
        }
      ],
      "stateMutability": "view",
      "type": "function"
    },
    {
      "inputs": [],
      "name": "gameFee",
      "outputs": [
        {
          "internalType": "uint256",
          "name": "",
          "type": "uint256"
        }
      ],
      "stateMutability": "view",
      "type": "function"
    },
    {
      "inputs": [],
      "name": "gameToken",
      "outputs": [
        {
          "internalType": "address",
          "name": "",
          "type": "address"
        }
      ],
      "stateMutability": "view",
      "type": "function"
    },
    {
      "inputs": [
        {
          "internalType": "uint256",
          "name": "",
          "type": "uint256"
        }
      ],
      "name": "ledger",
      "outputs": [
        {
          "internalType": "address",
          "name": "playerAddress",
          "type": "address"
        },
        {
          "internalType": "uint256",
          "name": "roundId",
          "type": "uint256"
        },
        {
          "internalType": "uint256",
          "name": "amount",
          "type": "uint256"
        },
        {
          "internalType": "bool",
          "name": "updated",
          "type": "bool"
        },
        {
          "internalType": "bool",
          "name": "claimed",
          "type": "bool"
        }
      ],
      "stateMutability": "view",
      "type": "function"
    },
    {
      "inputs": [],
      "name": "nftTokenAddress",
      "outputs": [
        {
          "internalType": "address",
          "name": "",
          "type": "address"
        }
      ],
      "stateMutability": "view",
      "type": "function"
    },
    {
      "inputs": [
        {
          "internalType": "address",
          "name": "",
          "type": "address"
        },
        {
          "internalType": "address",
          "name": "",
          "type": "address"
        },
        {
          "internalType": "uint256[]",
          "name": "",
          "type": "uint256[]"
        },
        {
          "internalType": "uint256[]",
          "name": "",
          "type": "uint256[]"
        },
        {
          "internalType": "bytes",
          "name": "",
          "type": "bytes"
        }
      ],
      "name": "onERC1155BatchReceived",
      "outputs": [
        {
          "internalType": "bytes4",
          "name": "",
          "type": "bytes4"
        }
      ],
      "stateMutability": "nonpayable",
      "type": "function"
    },
    {
      "inputs": [
        {
          "internalType": "address",
          "name": "",
          "type": "address"
        },
        {
          "internalType": "address",
          "name": "",
          "type": "address"
        },
        {
          "internalType": "uint256",
          "name": "",
          "type": "uint256"
        },
        {
          "internalType": "uint256",
          "name": "",
          "type": "uint256"
        },
        {
          "internalType": "bytes",
          "name": "",
          "type": "bytes"
        }
      ],
      "name": "onERC1155Received",
      "outputs": [
        {
          "internalType": "bytes4",
          "name": "",
          "type": "bytes4"
        }
      ],
      "stateMutability": "nonpayable",
      "type": "function"
    },
    {
      "inputs": [],
      "name": "operatorAddress",
      "outputs": [
        {
          "internalType": "address",
          "name": "",
          "type": "address"
        }
      ],
      "stateMutability": "view",
      "type": "function"
    },
    {
      "inputs": [],
      "name": "owner",
      "outputs": [
        {
          "internalType": "address",
          "name": "",
          "type": "address"
        }
      ],
      "stateMutability": "view",
      "type": "function"
    },
    {
      "inputs": [],
      "name": "paused",
      "outputs": [
        {
          "internalType": "bool",
          "name": "",
          "type": "bool"
        }
      ],
      "stateMutability": "view",
      "type": "function"
    },
    {
      "inputs": [],
      "name": "renounceOwnership",
      "outputs": [],
      "stateMutability": "nonpayable",
      "type": "function"
    },
    {
      "inputs": [
        {
          "internalType": "bytes4",
          "name": "interfaceId",
          "type": "bytes4"
        }
      ],
      "name": "supportsInterface",
      "outputs": [
        {
          "internalType": "bool",
          "name": "",
          "type": "bool"
        }
      ],
      "stateMutability": "view",
      "type": "function"
    },
    {
      "inputs": [],
      "name": "threshold",
      "outputs": [
        {
          "internalType": "uint8",
          "name": "",
          "type": "uint8"
        }
      ],
      "stateMutability": "view",
      "type": "function"
    },
    {
      "inputs": [
        {
          "internalType": "address",
          "name": "newOwner",
          "type": "address"
        }
      ],
      "name": "transferOwnership",
      "outputs": [],
      "stateMutability": "nonpayable",
      "type": "function"
    },
    {
      "inputs": [
        {
          "internalType": "address",
          "name": "",
          "type": "address"
        },
        {
          "internalType": "uint256",
          "name": "",
          "type": "uint256"
        }
      ],
      "name": "userRounds",
      "outputs": [
        {
          "internalType": "uint256",
          "name": "",
          "type": "uint256"
        }
      ],
      "stateMutability": "view",
      "type": "function"
    },
    {
      "inputs": [
        {
          "internalType": "address",
          "name": "",
          "type": "address"
        }
      ],
      "name": "userWinnings",
      "outputs": [
        {
          "internalType": "uint256",
          "name": "",
          "type": "uint256"
        }
      ],
      "stateMutability": "view",
      "type": "function"
    },
    {
      "inputs": [
        {
          "internalType": "uint256",
          "name": "",
          "type": "uint256"
        }
      ],
      "name": "winnings",
      "outputs": [
        {
          "internalType": "uint256",
          "name": "",
          "type": "uint256"
        }
      ],
      "stateMutability": "view",
      "type": "function"
    },
    {
      "inputs": [
        {
          "internalType": "address",
          "name": "_operatorAddress",
          "type": "address"
        }
      ],
      "name": "setOperator",
      "outputs": [],
      "stateMutability": "nonpayable",
      "type": "function"
    },
    {
      "inputs": [
        {
          "internalType": "uint8[]",
          "name": "_brackets",
          "type": "uint8[]"
        }
      ],
      "name": "setBrackets",
      "outputs": [],
      "stateMutability": "nonpayable",
      "type": "function"
    },
    {
      "inputs": [
        {
          "internalType": "uint256[]",
          "name": "_winnings",
          "type": "uint256[]"
        }
      ],
      "name": "setWinnings",
      "outputs": [],
      "stateMutability": "nonpayable",
      "type": "function"
    },
    {
      "inputs": [
        {
          "internalType": "uint8",
          "name": "_threshold",
          "type": "uint8"
        }
      ],
      "name": "setThreshold",
      "outputs": [],
      "stateMutability": "nonpayable",
      "type": "function"
    },
    {
      "inputs": [
        {
          "internalType": "uint256",
          "name": "_gameFee",
          "type": "uint256"
        }
      ],
      "name": "setGameFee",
      "outputs": [],
      "stateMutability": "nonpayable",
      "type": "function"
    },
    {
      "inputs": [
        {
          "internalType": "address",
          "name": "tokenAddress",
          "type": "address"
        }
      ],
      "name": "setGameToken",
      "outputs": [],
      "stateMutability": "nonpayable",
      "type": "function"
    },
    {
      "inputs": [
        {
          "internalType": "uint256",
          "name": "_roundId",
          "type": "uint256"
        }
      ],
      "name": "enterGame",
      "outputs": [],
      "stateMutability": "nonpayable",
      "type": "function"
    },
    {
      "inputs": [],
      "name": "claim",
      "outputs": [],
      "stateMutability": "nonpayable",
      "type": "function"
    },
    {
      "inputs": [
        {
          "internalType": "uint256",
          "name": "value",
          "type": "uint256"
        }
      ],
      "name": "claimTreasury",
      "outputs": [],
      "stateMutability": "nonpayable",
      "type": "function"
    },
    {
      "inputs": [
        {
          "internalType": "address",
          "name": "_address",
          "type": "address"
        }
      ],
      "name": "getUserWinnings",
      "outputs": [
        {
          "internalType": "uint256",
          "name": "",
          "type": "uint256"
        }
      ],
      "stateMutability": "view",
      "type": "function"
    },
    {
      "inputs": [
        {
          "internalType": "address",
          "name": "_address",
          "type": "address"
        }
      ],
      "name": "getUserRounds",
      "outputs": [
        {
          "internalType": "uint256[]",
          "name": "",
          "type": "uint256[]"
        }
      ],
      "stateMutability": "view",
      "type": "function"
    },
    {
      "inputs": [
        {
          "internalType": "uint256",
          "name": "_roundId",
          "type": "uint256"
        }
      ],
      "name": "getLegerEntryForRoundId",
      "outputs": [
        {
          "components": [
            {
              "internalType": "address",
              "name": "playerAddress",
              "type": "address"
            },
            {
              "internalType": "uint256",
              "name": "roundId",
              "type": "uint256"
            },
            {
              "internalType": "uint256",
              "name": "amount",
              "type": "uint256"
            },
            {
              "internalType": "bool",
              "name": "updated",
              "type": "bool"
            },
            {
              "internalType": "bool",
              "name": "claimed",
              "type": "bool"
            }
          ],
          "internalType": "struct Slot.RoundInfo",
          "name": "",
          "type": "tuple"
        }
      ],
      "stateMutability": "view",
      "type": "function"
    }
  ],
  "bytecode": "0x60806040523480156200001157600080fd5b50604051620020e0380380620020e0833981016040819052620000349162000103565b6200003f3362000096565b6000805460ff60a01b1916905560018055600280546001600160a01b03199081166001600160a01b039687161790915560038054821694861694909417909355600480549093169190931617905560065562000155565b600080546001600160a01b038381166001600160a01b0319831681178455604051919092169283917f8be0079c531659141344cd1fd0a4f28419497f9722a3daafe3b4186f6b6457e09190a35050565b80516001600160a01b0381168114620000fe57600080fd5b919050565b600080600080608085870312156200011a57600080fd5b6200012585620000e6565b93506200013560208601620000e6565b92506200014560408601620000e6565b6060959095015193969295505050565b611f7b80620001656000396000f3fe608060405234801561001057600080fd5b50600436106101da5760003560e01c8063a3445cc611610104578063c3dfdae6116100a2578063ee1b095311610071578063ee1b0953146105d0578063f23a6e61146105e3578063f2fde38b1461061b578063fc6f94681461062e57600080fd5b8063c3dfdae61461058e578063dd1f7596146105a1578063e5a98603146105b4578063ea777eec146105c757600080fd5b8063aaa6cd19116100de578063aaa6cd1914610414578063b2f09086146104ff578063b3ab15fb14610512578063bc197c811461052557600080fd5b8063a3445cc6146103ce578063a38bcc78146103e1578063a815a4d4146103f457600080fd5b806343d6582b1161017c578063715018a61161014b578063715018a61461038f57806380d29e66146103975780638da5cb5b146103aa5780639f9357d1146103bb57600080fd5b806343d6582b1461033c5780634e71d92d146103515780635c975abb146103595780635d57ab281461037c57600080fd5b8063127effb2116101b8578063127effb2146102b35780631b3e0799146102c65780633a506294146102fd57806342cde4e81461031d57600080fd5b806301ffc9a7146101df578063059cd0cd1461020757806310a7fd7b14610232575b600080fd5b6101f26101ed366004611a4a565b610641565b60405190151581526020015b60405180910390f35b60055461021a906001600160a01b031681565b6040516001600160a01b0390911681526020016101fe565b61027d610240366004611a8c565b60076020526000908152604090208054600182015460028301546003909301546001600160a01b0390921692909160ff8082169161010090041685565b604080516001600160a01b039096168652602086019490945292840191909152151560608301521515608082015260a0016101fe565b60035461021a906001600160a01b031681565b6102ef6102d4366004611ac1565b6001600160a01b031660009081526009602052604090205490565b6040519081526020016101fe565b61031061030b366004611ac1565b6106da565b6040516101fe9190611adc565b600c5461032a9060ff1681565b60405160ff90911681526020016101fe565b61034f61034a366004611a8c565b610746565b005b61034f610b3d565b60005474010000000000000000000000000000000000000000900460ff166101f2565b6102ef61038a366004611a8c565b610ea0565b61034f610ec1565b61034f6103a5366004611ac1565b610f27565b6000546001600160a01b031661021a565b61034f6103c9366004611a8c565b611025565b61034f6103dc366004611b6c565b611187565b61034f6103ef366004611a8c565b6111de565b6102ef610402366004611ac1565b60096020526000908152604090205481565b6104b0610422366004611a8c565b6040805160a08101825260008082526020820181905291810182905260608101829052608081019190915250600090815260076020908152604091829020825160a08101845281546001600160a01b0316815260018201549281019290925260028101549282019290925260039091015460ff80821615156060840152610100909104161515608082015290565b6040516101fe9190600060a0820190506001600160a01b038351168252602083015160208301526040830151604083015260608301511515606083015260808301511515608083015292915050565b61034f61050d366004611b6c565b6112a9565b61034f610520366004611ac1565b6112fb565b61055d610533366004611ce5565b7fbc197c810000000000000000000000000000000000000000000000000000000095945050505050565b6040517fffffffff0000000000000000000000000000000000000000000000000000000090911681526020016101fe565b60045461021a906001600160a01b031681565b6102ef6105af366004611d8f565b6113f2565b61034f6105c2366004611db9565b611423565b6102ef60065481565b61032a6105de366004611a8c565b61147f565b61055d6105f1366004611ddc565b7ff23a6e610000000000000000000000000000000000000000000000000000000095945050505050565b61034f610629366004611ac1565b6114b3565b60025461021a906001600160a01b031681565b60007fffffffff0000000000000000000000000000000000000000000000000000000082167f4e2312e00000000000000000000000000000000000000000000000000000000014806106d457507f01ffc9a7000000000000000000000000000000000000000000000000000000007fffffffff000000000000000000000000000000000000000000000000000000008316145b92915050565b6001600160a01b03811660009081526008602090815260409182902080548351818402810184019094528084526060939283018282801561073a57602002820191906000526020600020905b815481526020019060010190808311610726575b50505050509050919050565b60005474010000000000000000000000000000000000000000900460ff16156107b65760405162461bcd60e51b815260206004820152601060248201527f5061757361626c653a207061757365640000000000000000000000000000000060448201526064015b60405180910390fd5b6002600154036108085760405162461bcd60e51b815260206004820152601f60248201527f5265656e7472616e637947756172643a207265656e7472616e742063616c6c0060448201526064016107ad565b6002600155333b1561085c5760405162461bcd60e51b815260206004820152601460248201527f436f6e7472616374206e6f7420616c6c6f77656400000000000000000000000060448201526064016107ad565b3332146108ab5760405162461bcd60e51b815260206004820152601a60248201527f50726f787920636f6e7472616374206e6f7420616c6c6f77656400000000000060448201526064016107ad565b806000036108fb5760405162461bcd60e51b815260206004820152600f60248201527f6d697373696e6720526f756e644964000000000000000000000000000000000060448201526064016107ad565b600081815260076020526040902080546001600160a01b0316156109615760405162461bcd60e51b815260206004820152601060248201527f6578697374696e6720726f756e6449640000000000000000000000000000000060448201526064016107ad565b600480546006546040517f23b872dd000000000000000000000000000000000000000000000000000000008152339381019390935230602484015260448301526000916001600160a01b03909116906323b872dd906064016020604051808303816000875af11580156109d8573d6000803e3d6000fd5b505050506040513d601f19601f820116820180604052508101906109fc9190611e41565b90508015610aec57815473ffffffffffffffffffffffffffffffffffffffff19163390811783556006546002840155600180840185905560009182526008602090815260408320805492830181558352822001849055610a5b84611595565b90507f68f154ad880e236801ed1d6a0d7797c70ae6105cb36db8cd17d971640056cc0f843360065484600060028110610a9657610a96611e63565b60200201518560016020020151604051610ade9594939291909485526001600160a01b03939093166020850152604084019190915260ff166060830152608082015260a00190565b60405180910390a150610b34565b60405162461bcd60e51b815260206004820152601660248201527f726f756e6420776173206e6f74207061696420666f720000000000000000000060448201526064016107ad565b50506001805550565b60005474010000000000000000000000000000000000000000900460ff1615610ba85760405162461bcd60e51b815260206004820152601060248201527f5061757361626c653a207061757365640000000000000000000000000000000060448201526064016107ad565b600260015403610bfa5760405162461bcd60e51b815260206004820152601f60248201527f5265656e7472616e637947756172643a207265656e7472616e742063616c6c0060448201526064016107ad565b6002600155333b15610c4e5760405162461bcd60e51b815260206004820152601460248201527f436f6e7472616374206e6f7420616c6c6f77656400000000000000000000000060448201526064016107ad565b333214610c9d5760405162461bcd60e51b815260206004820152601a60248201527f50726f787920636f6e7472616374206e6f7420616c6c6f77656400000000000060448201526064016107ad565b3360009081526009602052604081205490819003610cfd5760405162461bcd60e51b815260206004820152601060248201527f6e6f7468696e6720746f20636c61696d0000000000000000000000000000000060448201526064016107ad565b3360009081526009602052604081208190555b33600090815260086020526040902054811015610dce57336000908152600860205260408120805483908110610d4857610d48611e63565b60009182526020808320909101548083526007909152604090912060038101549192509060ff168015610d8557506003810154610100900460ff16155b15610db9576003810180547fffffffffffffffffffffffffffffffffffffffffffffffffffffffffffff00ff166101001790555b50508080610dc690611e8f565b915050610d10565b50600480546040517fa9059cbb0000000000000000000000000000000000000000000000000000000081523392810192909252602482018390526001600160a01b03169063a9059cbb906044016020604051808303816000875af1158015610e3a573d6000803e3d6000fd5b505050506040513d601f19601f82011682018060405250810190610e5e9190611e41565b5060408051338152602081018390527ffd04ed5b7effcbeee6271e58baa05984df8c9c3167e577f60b9134f4178848bc91015b60405180910390a15060018055565b600b8181548110610eb057600080fd5b600091825260209091200154905081565b6000546001600160a01b03163314610f1b5760405162461bcd60e51b815260206004820181905260248201527f4f776e61626c653a2063616c6c6572206973206e6f7420746865206f776e657260448201526064016107ad565b610f256000611794565b565b6002546001600160a01b03163314610f6d5760405162461bcd60e51b81526020600482015260096024820152682737ba1030b236b4b760b91b60448201526064016107ad565b6001600160a01b038116610fc35760405162461bcd60e51b815260206004820152601660248201527f43616e6e6f74206265207a65726f20616464726573730000000000000000000060448201526064016107ad565b6004805473ffffffffffffffffffffffffffffffffffffffff19166001600160a01b0383169081179091556040519081527f1b2da3a8cc302f942643b808915983aafcb19eac5e65488cc5103f2905a5712b906020015b60405180910390a150565b6002600154036110775760405162461bcd60e51b815260206004820152601f60248201527f5265656e7472616e637947756172643a207265656e7472616e742063616c6c0060448201526064016107ad565b60026001819055546001600160a01b031633146110c25760405162461bcd60e51b81526020600482015260096024820152682737ba1030b236b4b760b91b60448201526064016107ad565b600480546002546040517fa9059cbb0000000000000000000000000000000000000000000000000000000081526001600160a01b039182169381019390935260248301849052169063a9059cbb906044016020604051808303816000875af1158015611132573d6000803e3d6000fd5b505050506040513d601f19601f820116820180604052508101906111569190611e41565b506040518181527fb9197c6b8e21274bd1e2d9c956a88af5cfee510f630fab3f046300f88b42236190602001610e91565b6002546001600160a01b031633146111cd5760405162461bcd60e51b81526020600482015260096024820152682737ba1030b236b4b760b91b60448201526064016107ad565b6111d9600a8383611933565b505050565b6002546001600160a01b031633146112245760405162461bcd60e51b81526020600482015260096024820152682737ba1030b236b4b760b91b60448201526064016107ad565b806000036112745760405162461bcd60e51b815260206004820152601360248201527f47616d652063616e6e6f7420626520667265650000000000000000000000000060448201526064016107ad565b60068190556040518181527fe417e4f56f5891bd6bee6640182e9370ecebd2346df4f55151c1dface616d20f9060200161101a565b6002546001600160a01b031633146112ef5760405162461bcd60e51b81526020600482015260096024820152682737ba1030b236b4b760b91b60448201526064016107ad565b6111d9600b83836119dc565b6002546001600160a01b031633146113415760405162461bcd60e51b81526020600482015260096024820152682737ba1030b236b4b760b91b60448201526064016107ad565b6001600160a01b0381166113975760405162461bcd60e51b815260206004820152601660248201527f43616e6e6f74206265207a65726f20616464726573730000000000000000000060448201526064016107ad565b6003805473ffffffffffffffffffffffffffffffffffffffff19166001600160a01b0383169081179091556040519081527fc47d127c07bdd56c5ccba00463ce3bd3c1bca71b4670eea6e5d0c02e4aa156e29060200161101a565b6008602052816000526040600020818154811061140e57600080fd5b90600052602060002001600091509150505481565b6002546001600160a01b031633146114695760405162461bcd60e51b81526020600482015260096024820152682737ba1030b236b4b760b91b60448201526064016107ad565b600c805460ff191660ff92909216919091179055565b600a818154811061148f57600080fd5b9060005260206000209060209182820401919006915054906101000a900460ff1681565b6000546001600160a01b0316331461150d5760405162461bcd60e51b815260206004820181905260248201527f4f776e61626c653a2063616c6c6572206973206e6f7420746865206f776e657260448201526064016107ad565b6001600160a01b0381166115895760405162461bcd60e51b815260206004820152602660248201527f4f776e61626c653a206e6577206f776e657220697320746865207a65726f206160448201527f646472657373000000000000000000000000000000000000000000000000000060648201526084016107ad565b61159281611794565b50565b61159d611a17565b6000828152600760205260409020546001600160a01b03166116015760405162461bcd60e51b815260206004820152601460248201527f6e6f74206578697374696e6720726f756e64496400000000000000000000000060448201526064016107ad565b600c5460009060649060ff1661162061161b866001611ec7565b6117f1565b60ff161161165757611631846118b0565b9050600b8160ff168154811061164957611649611e63565b906000526020600020015491505b60008481526007602090815260408083206002810186905560038101805460ff1916600117905580546001600160a01b0316845260099092529091205461169f908490611ec7565b81546001600160a01b03908116600090815260096020526040908190209290925560055491517ff242432a000000000000000000000000000000000000000000000000000000008152306004820152336024820152600260448201526001606482015260a06084820152600360a48201527f307830000000000000000000000000000000000000000000000000000000000060c482015291169063f242432a9060e401600060405180830381600087803b15801561175c57600080fd5b505af1158015611770573d6000803e3d6000fd5b50505050506040805180820190915260ff9091168152602081019190915292915050565b600080546001600160a01b0383811673ffffffffffffffffffffffffffffffffffffffff19831681178455604051919092169283917f8be0079c531659141344cd1fd0a4f28419497f9722a3daafe3b4186f6b6457e09190a35050565b60008060644244604051602001611812929190918252602082015260400190565b6040516020818303038152906040528051906020012060001c6118359190611edf565b90506064611844826001611f01565b8460405160200161188692919060f89290921b7fff00000000000000000000000000000000000000000000000000000000000000168252600182015260210190565b6040516020818303038152906040528051906020012060001c6118a99190611edf565b9392505050565b6000806118bc836117f1565b905060005b600a5460ff8216101561192957600a8160ff16815481106118e4576118e4611e63565b90600052602060002090602091828204019190069054906101000a900460ff1660ff168260ff1611611917579392505050565b8061192181611f26565b9150506118c1565b5060649392505050565b82805482825590600052602060002090601f016020900481019282156119cc5791602002820160005b8382111561199d57833560ff1683826101000a81548160ff021916908360ff160217905550926020019260010160208160000104928301926001030261195c565b80156119ca5782816101000a81549060ff021916905560010160208160000104928301926001030261199d565b505b506119d8929150611a35565b5090565b8280548282559060005260206000209081019282156119cc579160200282015b828111156119cc5782358255916020019190600101906119fc565b60405180604001604052806002906020820280368337509192915050565b5b808211156119d85760008155600101611a36565b600060208284031215611a5c57600080fd5b81357fffffffff00000000000000000000000000000000000000000000000000000000811681146118a957600080fd5b600060208284031215611a9e57600080fd5b5035919050565b80356001600160a01b0381168114611abc57600080fd5b919050565b600060208284031215611ad357600080fd5b6118a982611aa5565b6020808252825182820181905260009190848201906040850190845b81811015611b1457835183529284019291840191600101611af8565b50909695505050505050565b60008083601f840112611b3257600080fd5b50813567ffffffffffffffff811115611b4a57600080fd5b6020830191508360208260051b8501011115611b6557600080fd5b9250929050565b60008060208385031215611b7f57600080fd5b823567ffffffffffffffff811115611b9657600080fd5b611ba285828601611b20565b90969095509350505050565b634e487b7160e01b600052604160045260246000fd5b604051601f8201601f1916810167ffffffffffffffff81118282101715611bed57611bed611bae565b604052919050565b600082601f830112611c0657600080fd5b8135602067ffffffffffffffff821115611c2257611c22611bae565b8160051b611c31828201611bc4565b9283528481018201928281019087851115611c4b57600080fd5b83870192505b84831015611c6a57823582529183019190830190611c51565b979650505050505050565b600082601f830112611c8657600080fd5b813567ffffffffffffffff811115611ca057611ca0611bae565b611cb36020601f19601f84011601611bc4565b818152846020838601011115611cc857600080fd5b816020850160208301376000918101602001919091529392505050565b600080600080600060a08688031215611cfd57600080fd5b611d0686611aa5565b9450611d1460208701611aa5565b9350604086013567ffffffffffffffff80821115611d3157600080fd5b611d3d89838a01611bf5565b94506060880135915080821115611d5357600080fd5b611d5f89838a01611bf5565b93506080880135915080821115611d7557600080fd5b50611d8288828901611c75565b9150509295509295909350565b60008060408385031215611da257600080fd5b611dab83611aa5565b946020939093013593505050565b600060208284031215611dcb57600080fd5b813560ff811681146118a957600080fd5b600080600080600060a08688031215611df457600080fd5b611dfd86611aa5565b9450611e0b60208701611aa5565b93506040860135925060608601359150608086013567ffffffffffffffff811115611e3557600080fd5b611d8288828901611c75565b600060208284031215611e5357600080fd5b815180151581146118a957600080fd5b634e487b7160e01b600052603260045260246000fd5b634e487b7160e01b600052601160045260246000fd5b60007fffffffffffffffffffffffffffffffffffffffffffffffffffffffffffffffff8203611ec057611ec0611e79565b5060010190565b60008219821115611eda57611eda611e79565b500190565b600082611efc57634e487b7160e01b600052601260045260246000fd5b500690565b600060ff821660ff84168060ff03821115611f1e57611f1e611e79565b019392505050565b600060ff821660ff8103611f3c57611f3c611e79565b6001019291505056fea2646970667358221220f3d85d65bddab1a40757c33d23ff77ee8a2c2a618125b2774ef76bd0c8cbe56364736f6c634300080e0033",
  "immutableReferences": {},
  "source": "// SPDX-License-Identifier: MIT\n\npragma solidity ^0.8.0;\n\nimport \"./abstract/Ownable.sol\";\nimport \"./abstract/Pausable.sol\";\nimport \"./abstract/ReentrancyGuard.sol\";\nimport \"../node_modules/openzeppelin-solidity/contracts/interfaces/IERC20.sol\";\nimport \"../node_modules/openzeppelin-solidity/contracts/interfaces/IERC1155.sol\";\nimport \"../node_modules/openzeppelin-solidity/contracts/token/ERC1155/utils/ERC1155Holder.sol\";\n//import \"../node_modules/openzeppelin-solidity/contracts/interfaces/IERC1155Receiver\";\n\n\ncontract Slot is Ownable, Pausable, ReentrancyGuard, ERC1155Holder {\n\n    address public adminAddress; // address of the admin\n    address public operatorAddress; // address of the operator\n    address public gameToken; // you can pay with this token only\n    address public nftTokenAddress;\n    uint256 public gameFee;\n    mapping(uint256 => RoundInfo) public ledger; // key on roundId\n    mapping(address => uint256[]) public userRounds; // value is roundId\n    mapping(address => uint256) public userWinnings; // value is balance\n    uint8[] public brackets;\n    uint256[] public winnings;\n    uint8 public threshold;\n\n    struct RoundInfo {\n        address playerAddress;\n        uint256 roundId;\n        uint256 amount;\n        bool updated; // default false\n        bool claimed; // default false\n    }\n\n    event NewOperatorAddress(address operator);\n    event NewGameToken(address tokenAddress);\n    event GameFeeSet(uint256 gameFee);\n    event GameEntered(uint256 roundId, address user, uint256 gameFee, uint8 bracket, uint256 amount);\n    event ResultUpdated(uint256 roundId, uint256 amount, uint8 bracket);\n    event TreasuryClaim(uint256 amount);\n    event PlayerClaimed(address player, uint256 amount);\n\n    modifier onlyAdmin() {\n        require(msg.sender == adminAddress, \"Not admin\");\n        _;\n    }\n\n    modifier onlyAdminOrOperator() {\n        require(msg.sender == adminAddress || msg.sender == operatorAddress, \"Not operator/admin\");\n        _;\n    }\n\n    modifier onlyOperator() {\n        require(msg.sender == operatorAddress, \"Not operator\");\n        _;\n    }\n\n    modifier notContract() {\n        require(!_isContract(msg.sender), \"Contract not allowed\");\n        require(msg.sender == tx.origin, \"Proxy contract not allowed\");\n        _;\n    }\n\n    constructor(\n        address _adminAddress,\n        address _operatorAddress,\n        address _gameTokenAddress,\n        uint256 _gameFee\n    ) {\n        adminAddress = _adminAddress;\n        operatorAddress = _operatorAddress;\n        gameToken = _gameTokenAddress;\n        gameFee = _gameFee;\n    }\n\n    function setOperator(address _operatorAddress) external onlyAdmin {\n        require(_operatorAddress != address(0), \"Cannot be zero address\");\n        operatorAddress = _operatorAddress;\n\n        emit NewOperatorAddress(_operatorAddress);\n    }\n\n    function setBrackets(uint8[] calldata _brackets) external onlyAdmin {\n        brackets = _brackets;\n    }\n\n    function setWinnings(uint256[] calldata _winnings) external onlyAdmin {\n        winnings = _winnings;\n    }\n\n    function setThreshold(uint8 _threshold) external onlyAdmin {\n        threshold = _threshold;\n    }\n\n    function setGameFee(uint256 _gameFee) external onlyAdmin {\n        require(_gameFee != 0, \"Game cannot be free\");\n        gameFee = _gameFee;\n\n        emit GameFeeSet(_gameFee);\n    }\n\n    function setGameToken(address tokenAddress) external onlyAdmin {\n        require(tokenAddress != address(0), \"Cannot be zero address\");\n        gameToken = tokenAddress;\n\n        emit NewGameToken(tokenAddress);\n    }\n\n    function enterGame(uint256 _roundId) external whenNotPaused nonReentrant notContract {\n        require(_roundId != 0, \"missing RoundId\");\n\n        RoundInfo storage roundInfo = ledger[_roundId];\n        if (roundInfo.playerAddress != address(0x0)) {\n            revert(\"existing roundId\");\n        }\n\n        bool success = IERC20(gameToken).transferFrom(msg.sender, address(this), gameFee);\n\n        if (success) {\n            roundInfo.playerAddress = msg.sender;\n            roundInfo.amount = gameFee;\n            roundInfo.roundId = _roundId;\n            userRounds[msg.sender].push(_roundId);\n\n            uint256[2] memory result = setRoundResult(_roundId);\n\n            emit GameEntered(_roundId, msg.sender, gameFee, uint8(result[0]), result[1]);\n        } else {\n            revert(\"round was not paid for\");\n        }\n    }\n\n    function claim() external whenNotPaused nonReentrant notContract {\n        uint256 claimValue = userWinnings[msg.sender];\n        if (claimValue == 0) {\n            revert(\"nothing to claim\");\n        }\n\n        userWinnings[msg.sender] = 0;\n        for (uint256 i = 0; i < userRounds[msg.sender].length; i++) {\n            uint256 round = userRounds[msg.sender][i];\n            RoundInfo storage legerRound = ledger[round];\n            if (legerRound.updated && !legerRound.claimed) {\n\n                legerRound.claimed = true;\n            }\n        }\n\n        IERC20(gameToken).transfer(msg.sender, claimValue);\n        emit PlayerClaimed(msg.sender, claimValue);\n\n    }\n\n    function setRoundResult(uint256 _roundId) internal returns (uint256[2] memory) {\n        if (ledger[_roundId].playerAddress == address(0x0)) {\n            revert(\"not existing roundId\");\n        }\n\n        uint256 amount = 0;\n        uint8 bracket = 100;\n        if (getPseudoRandom(_roundId + 1) <= threshold) {\n            bracket = getBracketForRound(_roundId);\n            amount = winnings[bracket];\n        }\n        RoundInfo storage roundInfo = ledger[_roundId];\n        roundInfo.amount = amount;\n        roundInfo.updated = true;\n        userWinnings[roundInfo.playerAddress] = userWinnings[roundInfo.playerAddress] + amount;\n\n        // todo: change to work off the random number\n        if(true) {\n            IERC1155(nftTokenAddress).safeTransferFrom(address(this), msg.sender, 2, 1, \"0x0\");\n        }\n\n        uint256[2] memory result = [bracket, amount];\n        return result;\n    }\n\n    function getBracketForRound(uint256 _roundId) internal view returns (uint8) {\n        uint8 randomNumber = getPseudoRandom(_roundId);\n        for (uint8 i = 0; i < brackets.length; i++) {\n            if (randomNumber <= brackets[i]) {\n                return i;\n            }\n        }\n        return 100;\n    }\n\n    function getPseudoRandom(uint256 _roundId) internal view returns (uint8) {\n        uint8 number = uint8(uint256(keccak256(abi.encodePacked(block.timestamp, block.difficulty))) % 100);\n        return uint8(uint256(keccak256(abi.encodePacked(number + 1, _roundId))) % 100);\n    }\n\n    function claimTreasury(uint256 value) external nonReentrant onlyAdmin {\n        IERC20(gameToken).transfer(adminAddress, value);\n\n        emit TreasuryClaim(value);\n    }\n\n    function getUserWinnings(address _address) external view returns (uint256) {\n        return userWinnings[_address];\n    }\n\n    function getUserRounds(address _address) external view returns (uint256[] memory) {\n        return userRounds[_address];\n    }\n\n    function getLegerEntryForRoundId(uint256 _roundId) external view returns (RoundInfo memory) {\n        return ledger[_roundId];\n    }\n\n    function _isContract(address account) internal view returns (bool) {\n        uint256 size;\n        assembly {\n            size := extcodesize(account)\n        }\n        return size > 0;\n    }\n}\n",
  "sourcePath": "/Users/slavpilus/dev/unity/arcadechain-slot/SmartContract/contracts/SlotNFT.sol",
  "compiler": {
    "name": "solc",
    "version": "0.8.14+commit.80d49f37.Emscripten.clang"
  },
  "schemaVersion": "3.4.7",
  "updatedAt": "2022-09-10T09:38:49.601Z",
  "devdoc": {
    "kind": "dev",
    "methods": {
      "owner()": {
        "details": "Returns the address of the current owner."
      },
      "paused()": {
        "details": "Returns true if the contract is paused, and false otherwise."
      },
      "renounceOwnership()": {
        "details": "Leaves the contract without owner. It will not be possible to call `onlyOwner` functions anymore. Can only be called by the current owner. NOTE: Renouncing ownership will leave the contract without an owner, thereby removing any functionality that is only available to the owner."
      },
      "supportsInterface(bytes4)": {
        "details": "See {IERC165-supportsInterface}."
      },
      "transferOwnership(address)": {
        "details": "Transfers ownership of the contract to a new account (`newOwner`). Can only be called by the current owner."
      }
    },
    "version": 1
  },
  "userdoc": {
    "kind": "user",
    "methods": {},
    "version": 1
  }
}