{
  "contractName": "Slot",
  "abi": [
    {
      "inputs": [
        {
          "internalType": "address",
          "name": "_adminAddress",
          "type": "address"
        },
        {
          "internalType": "address",
          "name": "_operatorAddress",
          "type": "address"
        },
        {
          "internalType": "address",
          "name": "_gameTokenAddress",
          "type": "address"
        },
        {
          "internalType": "uint256",
          "name": "_gameFee",
          "type": "uint256"
        }
      ],
      "stateMutability": "nonpayable",
      "type": "constructor"
    },
    {
      "anonymous": false,
      "inputs": [
        {
          "indexed": false,
          "internalType": "uint256",
          "name": "roundId",
          "type": "uint256"
        },
        {
          "indexed": false,
          "internalType": "address",
          "name": "user",
          "type": "address"
        },
        {
          "indexed": false,
          "internalType": "uint256",
          "name": "gameFee",
          "type": "uint256"
        },
        {
          "indexed": false,
          "internalType": "uint8",
          "name": "bracket",
          "type": "uint8"
        },
        {
          "indexed": false,
          "internalType": "uint256",
          "name": "amount",
          "type": "uint256"
        }
      ],
      "name": "GameEntered",
      "type": "event"
    },
    {
      "anonymous": false,
      "inputs": [
        {
          "indexed": false,
          "internalType": "uint256",
          "name": "gameFee",
          "type": "uint256"
        }
      ],
      "name": "GameFeeSet",
      "type": "event"
    },
    {
      "anonymous": false,
      "inputs": [
        {
          "indexed": false,
          "internalType": "address",
          "name": "tokenAddress",
          "type": "address"
        }
      ],
      "name": "NewGameToken",
      "type": "event"
    },
    {
      "anonymous": false,
      "inputs": [
        {
          "indexed": false,
          "internalType": "address",
          "name": "operator",
          "type": "address"
        }
      ],
      "name": "NewOperatorAddress",
      "type": "event"
    },
    {
      "anonymous": false,
      "inputs": [
        {
          "indexed": true,
          "internalType": "address",
          "name": "previousOwner",
          "type": "address"
        },
        {
          "indexed": true,
          "internalType": "address",
          "name": "newOwner",
          "type": "address"
        }
      ],
      "name": "OwnershipTransferred",
      "type": "event"
    },
    {
      "anonymous": false,
      "inputs": [
        {
          "indexed": false,
          "internalType": "address",
          "name": "account",
          "type": "address"
        }
      ],
      "name": "Paused",
      "type": "event"
    },
    {
      "anonymous": false,
      "inputs": [
        {
          "indexed": false,
          "internalType": "address",
          "name": "player",
          "type": "address"
        },
        {
          "indexed": false,
          "internalType": "uint256",
          "name": "amount",
          "type": "uint256"
        }
      ],
      "name": "PlayerClaimed",
      "type": "event"
    },
    {
      "anonymous": false,
      "inputs": [
        {
          "indexed": false,
          "internalType": "uint256",
          "name": "roundId",
          "type": "uint256"
        },
        {
          "indexed": false,
          "internalType": "uint256",
          "name": "amount",
          "type": "uint256"
        },
        {
          "indexed": false,
          "internalType": "uint8",
          "name": "bracket",
          "type": "uint8"
        }
      ],
      "name": "ResultUpdated",
      "type": "event"
    },
    {
      "anonymous": false,
      "inputs": [
        {
          "indexed": false,
          "internalType": "uint256",
          "name": "amount",
          "type": "uint256"
        }
      ],
      "name": "TreasuryClaim",
      "type": "event"
    },
    {
      "anonymous": false,
      "inputs": [
        {
          "indexed": false,
          "internalType": "address",
          "name": "account",
          "type": "address"
        }
      ],
      "name": "Unpaused",
      "type": "event"
    },
    {
      "inputs": [],
      "name": "adminAddress",
      "outputs": [
        {
          "internalType": "address",
          "name": "",
          "type": "address"
        }
      ],
      "stateMutability": "view",
      "type": "function"
    },
    {
      "inputs": [
        {
          "internalType": "uint256",
          "name": "",
          "type": "uint256"
        }
      ],
      "name": "brackets",
      "outputs": [
        {
          "internalType": "uint8",
          "name": "",
          "type": "uint8"
        }
      ],
      "stateMutability": "view",
      "type": "function"
    },
    {
      "inputs": [],
      "name": "gameFee",
      "outputs": [
        {
          "internalType": "uint256",
          "name": "",
          "type": "uint256"
        }
      ],
      "stateMutability": "view",
      "type": "function"
    },
    {
      "inputs": [],
      "name": "gameToken",
      "outputs": [
        {
          "internalType": "address",
          "name": "",
          "type": "address"
        }
      ],
      "stateMutability": "view",
      "type": "function"
    },
    {
      "inputs": [
        {
          "internalType": "uint256",
          "name": "",
          "type": "uint256"
        }
      ],
      "name": "ledger",
      "outputs": [
        {
          "internalType": "address",
          "name": "playerAddress",
          "type": "address"
        },
        {
          "internalType": "uint256",
          "name": "roundId",
          "type": "uint256"
        },
        {
          "internalType": "uint256",
          "name": "amount",
          "type": "uint256"
        },
        {
          "internalType": "bool",
          "name": "updated",
          "type": "bool"
        },
        {
          "internalType": "bool",
          "name": "claimed",
          "type": "bool"
        }
      ],
      "stateMutability": "view",
      "type": "function"
    },
    {
      "inputs": [],
      "name": "operatorAddress",
      "outputs": [
        {
          "internalType": "address",
          "name": "",
          "type": "address"
        }
      ],
      "stateMutability": "view",
      "type": "function"
    },
    {
      "inputs": [],
      "name": "owner",
      "outputs": [
        {
          "internalType": "address",
          "name": "",
          "type": "address"
        }
      ],
      "stateMutability": "view",
      "type": "function"
    },
    {
      "inputs": [],
      "name": "paused",
      "outputs": [
        {
          "internalType": "bool",
          "name": "",
          "type": "bool"
        }
      ],
      "stateMutability": "view",
      "type": "function"
    },
    {
      "inputs": [],
      "name": "renounceOwnership",
      "outputs": [],
      "stateMutability": "nonpayable",
      "type": "function"
    },
    {
      "inputs": [],
      "name": "threshold",
      "outputs": [
        {
          "internalType": "uint8",
          "name": "",
          "type": "uint8"
        }
      ],
      "stateMutability": "view",
      "type": "function"
    },
    {
      "inputs": [
        {
          "internalType": "address",
          "name": "newOwner",
          "type": "address"
        }
      ],
      "name": "transferOwnership",
      "outputs": [],
      "stateMutability": "nonpayable",
      "type": "function"
    },
    {
      "inputs": [
        {
          "internalType": "address",
          "name": "",
          "type": "address"
        },
        {
          "internalType": "uint256",
          "name": "",
          "type": "uint256"
        }
      ],
      "name": "userRounds",
      "outputs": [
        {
          "internalType": "uint256",
          "name": "",
          "type": "uint256"
        }
      ],
      "stateMutability": "view",
      "type": "function"
    },
    {
      "inputs": [
        {
          "internalType": "address",
          "name": "",
          "type": "address"
        }
      ],
      "name": "userWinnings",
      "outputs": [
        {
          "internalType": "uint256",
          "name": "",
          "type": "uint256"
        }
      ],
      "stateMutability": "view",
      "type": "function"
    },
    {
      "inputs": [
        {
          "internalType": "uint256",
          "name": "",
          "type": "uint256"
        }
      ],
      "name": "winnings",
      "outputs": [
        {
          "internalType": "uint256",
          "name": "",
          "type": "uint256"
        }
      ],
      "stateMutability": "view",
      "type": "function"
    },
    {
      "inputs": [
        {
          "internalType": "address",
          "name": "_operatorAddress",
          "type": "address"
        }
      ],
      "name": "setOperator",
      "outputs": [],
      "stateMutability": "nonpayable",
      "type": "function"
    },
    {
      "inputs": [
        {
          "internalType": "uint8[]",
          "name": "_brackets",
          "type": "uint8[]"
        }
      ],
      "name": "setBrackets",
      "outputs": [],
      "stateMutability": "nonpayable",
      "type": "function"
    },
    {
      "inputs": [
        {
          "internalType": "uint256[]",
          "name": "_winnings",
          "type": "uint256[]"
        }
      ],
      "name": "setWinnings",
      "outputs": [],
      "stateMutability": "nonpayable",
      "type": "function"
    },
    {
      "inputs": [
        {
          "internalType": "uint8",
          "name": "_threshold",
          "type": "uint8"
        }
      ],
      "name": "setThreshold",
      "outputs": [],
      "stateMutability": "nonpayable",
      "type": "function"
    },
    {
      "inputs": [
        {
          "internalType": "uint256",
          "name": "_gameFee",
          "type": "uint256"
        }
      ],
      "name": "setGameFee",
      "outputs": [],
      "stateMutability": "nonpayable",
      "type": "function"
    },
    {
      "inputs": [
        {
          "internalType": "address",
          "name": "tokenAddress",
          "type": "address"
        }
      ],
      "name": "setGameToken",
      "outputs": [],
      "stateMutability": "nonpayable",
      "type": "function"
    },
    {
      "inputs": [
        {
          "internalType": "uint256",
          "name": "_roundId",
          "type": "uint256"
        }
      ],
      "name": "enterGame",
      "outputs": [],
      "stateMutability": "nonpayable",
      "type": "function"
    },
    {
      "inputs": [],
      "name": "claim",
      "outputs": [],
      "stateMutability": "nonpayable",
      "type": "function"
    },
    {
      "inputs": [
        {
          "internalType": "uint256",
          "name": "value",
          "type": "uint256"
        }
      ],
      "name": "claimTreasury",
      "outputs": [],
      "stateMutability": "nonpayable",
      "type": "function"
    },
    {
      "inputs": [
        {
          "internalType": "address",
          "name": "_address",
          "type": "address"
        }
      ],
      "name": "getUserWinnings",
      "outputs": [
        {
          "internalType": "uint256",
          "name": "",
          "type": "uint256"
        }
      ],
      "stateMutability": "view",
      "type": "function"
    },
    {
      "inputs": [
        {
          "internalType": "address",
          "name": "_address",
          "type": "address"
        }
      ],
      "name": "getUserRounds",
      "outputs": [
        {
          "internalType": "uint256[]",
          "name": "",
          "type": "uint256[]"
        }
      ],
      "stateMutability": "view",
      "type": "function"
    },
    {
      "inputs": [
        {
          "internalType": "uint256",
          "name": "_roundId",
          "type": "uint256"
        }
      ],
      "name": "getLegerEntryForRoundId",
      "outputs": [
        {
          "components": [
            {
              "internalType": "address",
              "name": "playerAddress",
              "type": "address"
            },
            {
              "internalType": "uint256",
              "name": "roundId",
              "type": "uint256"
            },
            {
              "internalType": "uint256",
              "name": "amount",
              "type": "uint256"
            },
            {
              "internalType": "bool",
              "name": "updated",
              "type": "bool"
            },
            {
              "internalType": "bool",
              "name": "claimed",
              "type": "bool"
            }
          ],
          "internalType": "struct Slot.RoundInfo",
          "name": "",
          "type": "tuple"
        }
      ],
      "stateMutability": "view",
      "type": "function"
    }
  ],
  "bytecode": "0x60806040523480156200001157600080fd5b5060405162001be738038062001be7833981016040819052620000349162000103565b6200003f3362000096565b6000805460ff60a01b1916905560018055600280546001600160a01b03199081166001600160a01b039687161790915560038054821694861694909417909355600480549093169190931617905560055562000155565b600080546001600160a01b038381166001600160a01b0319831681178455604051919092169283917f8be0079c531659141344cd1fd0a4f28419497f9722a3daafe3b4186f6b6457e09190a35050565b80516001600160a01b0381168114620000fe57600080fd5b919050565b600080600080608085870312156200011a57600080fd5b6200012585620000e6565b93506200013560208601620000e6565b92506200014560408601620000e6565b6060959095015193969295505050565b611a8280620001656000396000f3fe608060405234801561001057600080fd5b50600436106101ae5760003560e01c8063a3445cc6116100ee578063c3dfdae611610097578063ea777eec11610071578063ea777eec14610507578063ee1b095314610510578063f2fde38b14610523578063fc6f94681461053657600080fd5b8063c3dfdae6146104ce578063dd1f7596146104e1578063e5a98603146104f457600080fd5b8063aaa6cd19116100c8578063aaa6cd19146103bd578063b2f09086146104a8578063b3ab15fb146104bb57600080fd5b8063a3445cc614610377578063a38bcc781461038a578063a815a4d41461039d57600080fd5b80634e71d92d1161015b578063715018a611610135578063715018a61461033857806380d29e66146103405780638da5cb5b146103535780639f9357d11461036457600080fd5b80634e71d92d146102ef5780635c975abb146102f75780635d57ab281461032557600080fd5b80633a5062941161018c5780633a5062941461029b57806342cde4e8146102bb57806343d6582b146102da57600080fd5b806310a7fd7b146101b3578063127effb2146102395780631b3e079914610264575b600080fd5b6101fe6101c13660046117d9565b60066020526000908152604090208054600182015460028301546003909301546001600160a01b0390921692909160ff8082169161010090041685565b604080516001600160a01b039096168652602086019490945292840191909152151560608301521515608082015260a0015b60405180910390f35b60035461024c906001600160a01b031681565b6040516001600160a01b039091168152602001610230565b61028d61027236600461180e565b6001600160a01b031660009081526008602052604090205490565b604051908152602001610230565b6102ae6102a936600461180e565b610549565b6040516102309190611829565b600b546102c89060ff1681565b60405160ff9091168152602001610230565b6102ed6102e83660046117d9565b6105b5565b005b6102ed6109ac565b60005474010000000000000000000000000000000000000000900460ff166040519015158152602001610230565b61028d6103333660046117d9565b610d0f565b6102ed610d30565b6102ed61034e36600461180e565b610d96565b6000546001600160a01b031661024c565b6102ed6103723660046117d9565b610e94565b6102ed6103853660046118b9565b610ff6565b6102ed6103983660046117d9565b61104d565b61028d6103ab36600461180e565b60086020526000908152604090205481565b6104596103cb3660046117d9565b6040805160a08101825260008082526020820181905291810182905260608101829052608081019190915250600090815260066020908152604091829020825160a08101845281546001600160a01b0316815260018201549281019290925260028101549282019290925260039091015460ff80821615156060840152610100909104161515608082015290565b6040516102309190600060a0820190506001600160a01b038351168252602083015160208301526040830151604083015260608301511515606083015260808301511515608083015292915050565b6102ed6104b63660046118b9565b611118565b6102ed6104c936600461180e565b61116a565b60045461024c906001600160a01b031681565b61028d6104ef3660046118fb565b611261565b6102ed610502366004611925565b611292565b61028d60055481565b6102c861051e3660046117d9565b6112ee565b6102ed61053136600461180e565b611322565b60025461024c906001600160a01b031681565b6001600160a01b0381166000908152600760209081526040918290208054835181840281018401909452808452606093928301828280156105a957602002820191906000526020600020905b815481526020019060010190808311610595575b50505050509050919050565b60005474010000000000000000000000000000000000000000900460ff16156106255760405162461bcd60e51b815260206004820152601060248201527f5061757361626c653a207061757365640000000000000000000000000000000060448201526064015b60405180910390fd5b6002600154036106775760405162461bcd60e51b815260206004820152601f60248201527f5265656e7472616e637947756172643a207265656e7472616e742063616c6c00604482015260640161061c565b6002600155333b156106cb5760405162461bcd60e51b815260206004820152601460248201527f436f6e7472616374206e6f7420616c6c6f776564000000000000000000000000604482015260640161061c565b33321461071a5760405162461bcd60e51b815260206004820152601a60248201527f50726f787920636f6e7472616374206e6f7420616c6c6f776564000000000000604482015260640161061c565b8060000361076a5760405162461bcd60e51b815260206004820152600f60248201527f6d697373696e6720526f756e6449640000000000000000000000000000000000604482015260640161061c565b600081815260066020526040902080546001600160a01b0316156107d05760405162461bcd60e51b815260206004820152601060248201527f6578697374696e6720726f756e64496400000000000000000000000000000000604482015260640161061c565b600480546005546040517f23b872dd000000000000000000000000000000000000000000000000000000008152339381019390935230602484015260448301526000916001600160a01b03909116906323b872dd906064016020604051808303816000875af1158015610847573d6000803e3d6000fd5b505050506040513d601f19601f8201168201806040525081019061086b9190611948565b9050801561095b57815473ffffffffffffffffffffffffffffffffffffffff191633908117835560055460028401556001808401859055600091825260076020908152604083208054928301815583528220018490556108ca84611404565b90507f68f154ad880e236801ed1d6a0d7797c70ae6105cb36db8cd17d971640056cc0f8433600554846000600281106109055761090561196a565b6020020151856001602002015160405161094d9594939291909485526001600160a01b03939093166020850152604084019190915260ff166060830152608082015260a00190565b60405180910390a1506109a3565b60405162461bcd60e51b815260206004820152601660248201527f726f756e6420776173206e6f74207061696420666f7200000000000000000000604482015260640161061c565b50506001805550565b60005474010000000000000000000000000000000000000000900460ff1615610a175760405162461bcd60e51b815260206004820152601060248201527f5061757361626c653a2070617573656400000000000000000000000000000000604482015260640161061c565b600260015403610a695760405162461bcd60e51b815260206004820152601f60248201527f5265656e7472616e637947756172643a207265656e7472616e742063616c6c00604482015260640161061c565b6002600155333b15610abd5760405162461bcd60e51b815260206004820152601460248201527f436f6e7472616374206e6f7420616c6c6f776564000000000000000000000000604482015260640161061c565b333214610b0c5760405162461bcd60e51b815260206004820152601a60248201527f50726f787920636f6e7472616374206e6f7420616c6c6f776564000000000000604482015260640161061c565b3360009081526008602052604081205490819003610b6c5760405162461bcd60e51b815260206004820152601060248201527f6e6f7468696e6720746f20636c61696d00000000000000000000000000000000604482015260640161061c565b3360009081526008602052604081208190555b33600090815260076020526040902054811015610c3d57336000908152600760205260408120805483908110610bb757610bb761196a565b60009182526020808320909101548083526006909152604090912060038101549192509060ff168015610bf457506003810154610100900460ff16155b15610c28576003810180547fffffffffffffffffffffffffffffffffffffffffffffffffffffffffffff00ff166101001790555b50508080610c3590611996565b915050610b7f565b50600480546040517fa9059cbb0000000000000000000000000000000000000000000000000000000081523392810192909252602482018390526001600160a01b03169063a9059cbb906044016020604051808303816000875af1158015610ca9573d6000803e3d6000fd5b505050506040513d601f19601f82011682018060405250810190610ccd9190611948565b5060408051338152602081018390527ffd04ed5b7effcbeee6271e58baa05984df8c9c3167e577f60b9134f4178848bc91015b60405180910390a15060018055565b600a8181548110610d1f57600080fd5b600091825260209091200154905081565b6000546001600160a01b03163314610d8a5760405162461bcd60e51b815260206004820181905260248201527f4f776e61626c653a2063616c6c6572206973206e6f7420746865206f776e6572604482015260640161061c565b610d946000611523565b565b6002546001600160a01b03163314610ddc5760405162461bcd60e51b81526020600482015260096024820152682737ba1030b236b4b760b91b604482015260640161061c565b6001600160a01b038116610e325760405162461bcd60e51b815260206004820152601660248201527f43616e6e6f74206265207a65726f206164647265737300000000000000000000604482015260640161061c565b6004805473ffffffffffffffffffffffffffffffffffffffff19166001600160a01b0383169081179091556040519081527f1b2da3a8cc302f942643b808915983aafcb19eac5e65488cc5103f2905a5712b906020015b60405180910390a150565b600260015403610ee65760405162461bcd60e51b815260206004820152601f60248201527f5265656e7472616e637947756172643a207265656e7472616e742063616c6c00604482015260640161061c565b60026001819055546001600160a01b03163314610f315760405162461bcd60e51b81526020600482015260096024820152682737ba1030b236b4b760b91b604482015260640161061c565b600480546002546040517fa9059cbb0000000000000000000000000000000000000000000000000000000081526001600160a01b039182169381019390935260248301849052169063a9059cbb906044016020604051808303816000875af1158015610fa1573d6000803e3d6000fd5b505050506040513d601f19601f82011682018060405250810190610fc59190611948565b506040518181527fb9197c6b8e21274bd1e2d9c956a88af5cfee510f630fab3f046300f88b42236190602001610d00565b6002546001600160a01b0316331461103c5760405162461bcd60e51b81526020600482015260096024820152682737ba1030b236b4b760b91b604482015260640161061c565b611048600983836116c2565b505050565b6002546001600160a01b031633146110935760405162461bcd60e51b81526020600482015260096024820152682737ba1030b236b4b760b91b604482015260640161061c565b806000036110e35760405162461bcd60e51b815260206004820152601360248201527f47616d652063616e6e6f74206265206672656500000000000000000000000000604482015260640161061c565b60058190556040518181527fe417e4f56f5891bd6bee6640182e9370ecebd2346df4f55151c1dface616d20f90602001610e89565b6002546001600160a01b0316331461115e5760405162461bcd60e51b81526020600482015260096024820152682737ba1030b236b4b760b91b604482015260640161061c565b611048600a838361176b565b6002546001600160a01b031633146111b05760405162461bcd60e51b81526020600482015260096024820152682737ba1030b236b4b760b91b604482015260640161061c565b6001600160a01b0381166112065760405162461bcd60e51b815260206004820152601660248201527f43616e6e6f74206265207a65726f206164647265737300000000000000000000604482015260640161061c565b6003805473ffffffffffffffffffffffffffffffffffffffff19166001600160a01b0383169081179091556040519081527fc47d127c07bdd56c5ccba00463ce3bd3c1bca71b4670eea6e5d0c02e4aa156e290602001610e89565b6007602052816000526040600020818154811061127d57600080fd5b90600052602060002001600091509150505481565b6002546001600160a01b031633146112d85760405162461bcd60e51b81526020600482015260096024820152682737ba1030b236b4b760b91b604482015260640161061c565b600b805460ff191660ff92909216919091179055565b600981815481106112fe57600080fd5b9060005260206000209060209182820401919006915054906101000a900460ff1681565b6000546001600160a01b0316331461137c5760405162461bcd60e51b815260206004820181905260248201527f4f776e61626c653a2063616c6c6572206973206e6f7420746865206f776e6572604482015260640161061c565b6001600160a01b0381166113f85760405162461bcd60e51b815260206004820152602660248201527f4f776e61626c653a206e6577206f776e657220697320746865207a65726f206160448201527f6464726573730000000000000000000000000000000000000000000000000000606482015260840161061c565b61140181611523565b50565b61140c6117a6565b6000828152600660205260409020546001600160a01b03166114705760405162461bcd60e51b815260206004820152601460248201527f6e6f74206578697374696e6720726f756e644964000000000000000000000000604482015260640161061c565b600061147b83611580565b90506000600a8260ff16815481106114955761149561196a565b60009182526020808320909101548683526006825260408084206002810183905560038101805460ff1916600117905580546001600160a01b03168552600890935290922054919250906114ea9083906119ce565b90546001600160a01b031660009081526008602090815260409182902092909255805180820190915260ff909316835282015292915050565b600080546001600160a01b0383811673ffffffffffffffffffffffffffffffffffffffff19831681178455604051919092169283917f8be0079c531659141344cd1fd0a4f28419497f9722a3daafe3b4186f6b6457e09190a35050565b60008061158c83611603565b905060005b60095460ff821610156115f95760098160ff16815481106115b4576115b461196a565b90600052602060002090602091828204019190069054906101000a900460ff1660ff168260ff16116115e7579392505050565b806115f1816119e6565b915050611591565b5060649392505050565b60008060644244604051602001611624929190918252602082015260400190565b6040516020818303038152906040528051906020012060001c6116479190611a05565b90506064611656826001611a27565b8460405160200161169892919060f89290921b7fff00000000000000000000000000000000000000000000000000000000000000168252600182015260210190565b6040516020818303038152906040528051906020012060001c6116bb9190611a05565b9392505050565b82805482825590600052602060002090601f0160209004810192821561175b5791602002820160005b8382111561172c57833560ff1683826101000a81548160ff021916908360ff16021790555092602001926001016020816000010492830192600103026116eb565b80156117595782816101000a81549060ff021916905560010160208160000104928301926001030261172c565b505b506117679291506117c4565b5090565b82805482825590600052602060002090810192821561175b579160200282015b8281111561175b57823582559160200191906001019061178b565b60405180604001604052806002906020820280368337509192915050565b5b8082111561176757600081556001016117c5565b6000602082840312156117eb57600080fd5b5035919050565b80356001600160a01b038116811461180957600080fd5b919050565b60006020828403121561182057600080fd5b6116bb826117f2565b6020808252825182820181905260009190848201906040850190845b8181101561186157835183529284019291840191600101611845565b50909695505050505050565b60008083601f84011261187f57600080fd5b50813567ffffffffffffffff81111561189757600080fd5b6020830191508360208260051b85010111156118b257600080fd5b9250929050565b600080602083850312156118cc57600080fd5b823567ffffffffffffffff8111156118e357600080fd5b6118ef8582860161186d565b90969095509350505050565b6000806040838503121561190e57600080fd5b611917836117f2565b946020939093013593505050565b60006020828403121561193757600080fd5b813560ff811681146116bb57600080fd5b60006020828403121561195a57600080fd5b815180151581146116bb57600080fd5b634e487b7160e01b600052603260045260246000fd5b634e487b7160e01b600052601160045260246000fd5b60007fffffffffffffffffffffffffffffffffffffffffffffffffffffffffffffffff82036119c7576119c7611980565b5060010190565b600082198211156119e1576119e1611980565b500190565b600060ff821660ff81036119fc576119fc611980565b60010192915050565b600082611a2257634e487b7160e01b600052601260045260246000fd5b500690565b600060ff821660ff84168060ff03821115611a4457611a44611980565b01939250505056fea2646970667358221220180c5d7a87c975382d90102c97c75d07ed680e84888bdd779b567f2d642a129c64736f6c634300080e0033",
  "immutableReferences": {},
  "source": "// SPDX-License-Identifier: MIT\n\npragma solidity ^0.8.0;\n\nimport \"./abstract/Ownable.sol\";\nimport \"./abstract/Pausable.sol\";\nimport \"./abstract/ReentrancyGuard.sol\";\nimport \"../node_modules/openzeppelin-solidity/contracts/interfaces/IERC20.sol\";\n\ncontract Slot is Ownable, Pausable, ReentrancyGuard {\n\n    address public adminAddress; // address of the admin\n    address public operatorAddress; // address of the operator\n    address public gameToken; // you can pay with this token only\n    uint256 public gameFee;\n    mapping(uint256 => RoundInfo) public ledger; // key on roundId\n    mapping(address => uint256[]) public userRounds; // value is roundId\n    mapping(address => uint256) public userWinnings; // value is balance\n    uint8[] public brackets;\n    uint256[] public winnings;\n    uint8 public threshold;\n\n    struct RoundInfo {\n        address playerAddress;\n        uint256 roundId;\n        uint256 amount;\n        bool updated; // default false\n        bool claimed; // default false\n    }\n\n    event NewOperatorAddress(address operator);\n    event NewGameToken(address tokenAddress);\n    event GameFeeSet(uint256 gameFee);\n    event GameEntered(uint256 roundId, address user, uint256 gameFee, uint8 bracket, uint256 amount);\n    event ResultUpdated(uint256 roundId, uint256 amount, uint8 bracket);\n    event TreasuryClaim(uint256 amount);\n    event PlayerClaimed(address player, uint256 amount);\n\n    modifier onlyAdmin() {\n        require(msg.sender == adminAddress, \"Not admin\");\n        _;\n    }\n\n    modifier onlyAdminOrOperator() {\n        require(msg.sender == adminAddress || msg.sender == operatorAddress, \"Not operator/admin\");\n        _;\n    }\n\n    modifier onlyOperator() {\n        require(msg.sender == operatorAddress, \"Not operator\");\n        _;\n    }\n\n    modifier notContract() {\n        require(!_isContract(msg.sender), \"Contract not allowed\");\n        require(msg.sender == tx.origin, \"Proxy contract not allowed\");\n        _;\n    }\n\n    constructor(\n        address _adminAddress,\n        address _operatorAddress,\n        address _gameTokenAddress,\n        uint256 _gameFee\n    ) {\n        adminAddress = _adminAddress;\n        operatorAddress = _operatorAddress;\n        gameToken = _gameTokenAddress;\n        gameFee = _gameFee;\n    }\n\n    function setOperator(address _operatorAddress) external onlyAdmin {\n        require(_operatorAddress != address(0), \"Cannot be zero address\");\n        operatorAddress = _operatorAddress;\n\n        emit NewOperatorAddress(_operatorAddress);\n    }\n\n    function setBrackets(uint8[] calldata _brackets) external onlyAdmin {\n        brackets = _brackets;\n    }\n\n    function setWinnings(uint256[] calldata _winnings) external onlyAdmin {\n        winnings = _winnings;\n    }\n\n    function setThreshold(uint8 _threshold) external onlyAdmin {\n        threshold = _threshold;\n    }\n\n    function setGameFee(uint256 _gameFee) external onlyAdmin {\n        require(_gameFee != 0, \"Game cannot be free\");\n        gameFee = _gameFee;\n\n        emit GameFeeSet(_gameFee);\n    }\n\n    function setGameToken(address tokenAddress) external onlyAdmin {\n        require(tokenAddress != address(0), \"Cannot be zero address\");\n        gameToken = tokenAddress;\n\n        emit NewGameToken(tokenAddress);\n    }\n\n    function enterGame(uint256 _roundId) external whenNotPaused nonReentrant notContract {\n        require(_roundId != 0, \"missing RoundId\");\n\n        RoundInfo storage roundInfo = ledger[_roundId];\n        if (roundInfo.playerAddress != address(0x0)) {\n            revert(\"existing roundId\");\n        }\n\n        bool success = IERC20(gameToken).transferFrom(msg.sender, address(this), gameFee);\n\n        if (success) {\n            roundInfo.playerAddress = msg.sender;\n            roundInfo.amount = gameFee;\n            roundInfo.roundId = _roundId;\n            userRounds[msg.sender].push(_roundId);\n\n            uint256[2] memory result = setRoundResult(_roundId);\n\n            emit GameEntered(_roundId, msg.sender, gameFee, uint8(result[0]), result[1]);\n        } else {\n            revert(\"round was not paid for\");\n        }\n    }\n\n    function claim() external whenNotPaused nonReentrant notContract {\n        uint256 claimValue = userWinnings[msg.sender];\n        if (claimValue == 0) {\n            revert(\"nothing to claim\");\n        }\n\n        userWinnings[msg.sender] = 0;\n        for (uint256 i = 0; i < userRounds[msg.sender].length; i++) {\n            uint256 round = userRounds[msg.sender][i];\n            RoundInfo storage legerRound = ledger[round];\n            if (legerRound.updated && !legerRound.claimed) {\n\n                legerRound.claimed = true;\n            }\n        }\n\n        IERC20(gameToken).transfer(msg.sender, claimValue);\n        emit PlayerClaimed(msg.sender, claimValue);\n\n    }\n\n    function setRoundResult(uint256 _roundId) internal returns (uint256[2] memory) {\n        if (ledger[_roundId].playerAddress == address(0x0)) {\n            revert(\"not existing roundId\");\n        }\n\n        uint8 bracket = getBracketForRound(_roundId);\n        uint256 amount = winnings[bracket];\n\n        RoundInfo storage roundInfo = ledger[_roundId];\n        roundInfo.amount = amount;\n        roundInfo.updated = true;\n\n        userWinnings[roundInfo.playerAddress] = userWinnings[roundInfo.playerAddress] + amount;\n        uint256[2] memory result = [bracket, amount];\n        return result;\n    }\n\n    function getBracketForRound(uint256 _roundId) internal view returns (uint8) {\n        uint8 randomNumber = getPseudoRandom(_roundId);\n        for (uint8 i = 0; i < brackets.length; i++) {\n            if (randomNumber <= brackets[i]) {\n                return i;\n            }\n        }\n        return 100;\n    }\n\n    function getPseudoRandom(uint256 _roundId) internal view returns (uint8) {\n        uint8 number = uint8(uint256(keccak256(abi.encodePacked(block.timestamp, block.difficulty))) % 100);\n        return uint8(uint256(keccak256(abi.encodePacked(number + 1, _roundId))) % 100);\n    }\n\n    function claimTreasury(uint256 value) external nonReentrant onlyAdmin {\n        IERC20(gameToken).transfer(adminAddress, value);\n\n        emit TreasuryClaim(value);\n    }\n\n    function getUserWinnings(address _address) external view returns (uint256) {\n        return userWinnings[_address];\n    }\n\n    function getUserRounds(address _address) external view returns (uint256[] memory) {\n        return userRounds[_address];\n    }\n\n    function getLegerEntryForRoundId(uint256 _roundId) external view returns (RoundInfo memory) {\n        return ledger[_roundId];\n    }\n\n    function _isContract(address account) internal view returns (bool) {\n        uint256 size;\n        assembly {\n            size := extcodesize(account)\n        }\n        return size > 0;\n    }\n}\n",
  "sourcePath": "/Users/slavpilus/dev/unity/arcadechain-slot/SmartContract/contracts/Slot.sol",
  "compiler": {
    "name": "solc",
    "version": "0.8.14+commit.80d49f37.Emscripten.clang"
  },
  "schemaVersion": "3.4.7",
  "updatedAt": "2022-09-04T12:12:21.718Z",
  "devdoc": {
    "kind": "dev",
    "methods": {
      "owner()": {
        "details": "Returns the address of the current owner."
      },
      "paused()": {
        "details": "Returns true if the contract is paused, and false otherwise."
      },
      "renounceOwnership()": {
        "details": "Leaves the contract without owner. It will not be possible to call `onlyOwner` functions anymore. Can only be called by the current owner. NOTE: Renouncing ownership will leave the contract without an owner, thereby removing any functionality that is only available to the owner."
      },
      "transferOwnership(address)": {
        "details": "Transfers ownership of the contract to a new account (`newOwner`). Can only be called by the current owner."
      }
    },
    "version": 1
  },
  "userdoc": {
    "kind": "user",
    "methods": {},
    "version": 1
  }
}